:100000000C9402050C9493260C94BA260C942A05A1
:100010000C942A050C942A050C942A050C942A05A4
:100020000C942A050C942A050C942A050C942A0594
:100030000C942A050C942A050C942A050C942A0584
:100040000C94E1260C942A050C942A050C942A059C
:100050000C942A050C942A050C942A050C942A0564
:100060000C9445250C942A05C9084009400940090B
:10007000DB08DF08E3084009EC08F008F408400951
:10008000FD08010905090909400912094009D208BA
:100090004009350939092C0940091B094009400963
:1000A00040094009400924092809701198119C1140
:1000B000A011A411A811AC11D811D811D811BA11DE
:1000C000BE11C211C611CA11CE11D211B912C91274
:1000D0001613D812E912F41240130513F1122F135C
:1000E00046136A136A136A135B135F13651367136E
:1000F0006A136A136A136A1348135213ED134C14EC
:1001000067148214E114FC141715941694167D15C7
:100110009D15BD15DD150E1634166516DB162D174B
:10012000141732173217321732171A1732173217BD
:100130002017261728172B1707634236B79BD8A717
:100140001A39685618AEBAAB558C1D3CB7CC5763FC
:10015000BD6DEDFD753EF6177231BF000000803FAA
:1001600008000000BE922449123EABAAAA2ABECDC6
:10017000CCCC4C3E00000080BEABAAAAAA3E000038
:100180000000BF000000803F000000000008417830
:10019000D3BB4387D1133D190E3CC3BD4282AD2B67
:1001A0003E68EC8276BED98FE1A93E4C80EFFFBE5F
:1001B00001C4FF7F3F0000000000000000000500B8
:1001C0000A0014001E00280032003C0046005000C7
:1001D0005A0064006E00780082008C009600A00037
:1001E000AA00B400BE00C800FA002C015E01900114
:1001F000C201F4015802BC0220038403E803B004E6
:10020000780540060807D007C409B80BAC0DA00F4D
:10021000941188137C1570176419581B4C1D401FCE
:10022000000000000F971097119712C9129713F151
:1002300013C913AC1397138614F114DB14C914BA41
:1002400014AC14A11497148E148615FE15F115C163
:1002500015A1158A16F116D616C116A1168A17F120
:1002600017D617C117A1178A18F118D618C1189AEE
:10027000188119DD19C119AC199A198C19811AED57
:100280001ADD1ACE1AC10000030520600000001715
:1002900000000300030A1F0A16131A09040A0A15AC
:1002A0001A030000000E11110E00060600040E04D1
:1002B0000C1C000404041000001804031F111F028A
:1002C0001F001D151715151F0F081E17151D1F15CB
:1002D0001D01011F1F151F17151F000A00001A001E
:1002E000040A110A0A0A110A040015071F15171F2C
:1002F000051F1F151B1F11111F110E1F15151F059F
:10030000011F111D1F041F111F1108100F1F041BB7
:100310001F10101F061F1C041C1F111F1F05070E96
:10032000191E1F051B17151D011F011F101F0F1080
:100330000F1F0C1F1B041B17141F191513001F116F
:10034000030418111F000601061010100101021805
:10035000141C1F141C1C14141C141F0C1A14041E2F
:100360000517151E1F041C001D0008100D1F0C1A78
:10037000001F00180C181804181E121E1F0507076E
:10038000051F1E0404121509021F021C101C0C106C
:100390000C0C180C140814161806041C10040E116A
:1003A000001F00110E040204021F1F1F14610A0B1C
:1003B0002060020203060508080103030505020385
:1003C00002050506050506050505050502020505E4
:1003D00005050A06060507050507070203060409C1
:1003E0000707050806050607060A060605030503AE
:1003F00005060205050405050306050202050208B7
:1004000005050505030403050508050504030104A6
:10041000050600000000BEBE20200E000E000000F9
:1004200048E85EE85E480020002000009C3E33F271
:10043000E400206020000C128C6018C620C0000070
:10044000200000002000C0EC3E327ECCE000002006
:100450002020200020200E00F0FC060060C006FCDA
:10046000F0C06000120C3F0C1200000000002020C1
:10047000F8202000000000008080E06020202000A4
:100480000000808020200080700C03C0200000004D
:10049000FCFE02FEFC00202020000804FEFE0000FE
:1004A00020202020202084C2623E1C2020202020EA
:1004B000841212FEEC0020202000605846FEFE4010
:1004C0000000002020001E1E12F2E220202020004A
:1004D000FCFE12F2E2002020200002C2FA3E0600DA
:1004E00020200000ECFE12FEEC00202020001C3E2C
:1004F00022FEFC2020202000989820209898E06080
:10050000205050888800000000005050505050008B
:10051000000000008888505020000000000002B257
:10052000B21E0C0020200000F00864928A4AF29A61
:10053000847800204040404040000000E0F84E4EEB
:10054000F8E0202000002020FEFE1212FEEC202009
:1005500020202000FCFE0202840020202000FEFE5D
:10056000020286FC7820202020200000FEFE1212CD
:10057000122020202020FEFE121212202000000057
:10058000FCFE020222E2E400202020202000FEFEE9
:10059000101010FEFE20200000002020FEFE202073
:1005A00000FEFE202000FEFE30FCCE0220200000D7
:1005B0002020FEFE000020202020FEFE1C70C070C7
:1005C0001CFEFE202000002000002020FEFE0C303B
:1005D000C0FEFE20200000002020FCFE020202FEE1
:1005E000FC00202020202000FEFE223E1C202000B7
:1005F0000000FCFE020202FEFC0000202020202061
:100600004040FEFE1232FECC2020000020209C3E06
:1006100032F2E400202020000202FEFE020200006E
:1006200020200000FEFE000000FEFE002020202012
:1006300020000E7EE0E07E0E000020200000063E3E
:10064000F8C03E3EC0F83E060000202000002020FA
:10065000000086CE7878CE86202000002020061E5E
:10066000F8F81E0600002020000082E27A1E062014
:1006700020202020FEFE02E0E080030C70800000BD
:10068000000020C002FEFE80E0E0100C020C100012
:10069000000000000000000000008080808080805A
:1006A00001020000C8E828F8F00020202020FEFE0B
:1006B00008F8F02020202000F0F808080020202072
:1006C000F0F808FEFE0020202020F0F82838300046
:1006D00020202020FCFE0A202000B0F848783808AE
:1006E000C0E0A0E06000FEFE08F8F020200020201E
:1006F000FBFB2020FBFBE060FEFE60F89820200062
:100700002020FEFE2020F8F808F8F008F8F020205D
:10071000002020002020F8F808F8F02020002020F9
:10072000F0F808F8F00020202000F8F808F8F0E0D1
:10073000E0202000F0F808F8F8002020E0E0F8F8C9
:10074000082020003078E8C820202000FCFC0800A9
:100750002020F8F800F8F8002020202038F880F851
:1007600038002020200038F8C03838C0F838002081
:1007700020000020200098F860F898202000202019
:1007800038F880F83800C0E0200088E87818202089
:100790002020FCDE0260E080FEE002DEFC2080E043
:1007A000600010081810080000000000FE026A3AFD
:1007B00002FE2020202020200000050720610000EC
:1007C00000000000005F00000007000700147F1415
:1007D0007F14242A7F2A1223130864623649552283
:1007E000500005030000001C2241000041221C00B3
:1007F000082A1C2A0808083E080800503000000893
:1008000008080808006060000020100804023E513B
:1008100049453E00427F40004261514946214145E1
:100820004B311814127F1027454545393C4A494938
:100830003001710905033649494936064949291EDF
:10084000003636000000563600000008142241141D
:1008500014141414412214080002015109063249EB
:1008600079413E7E1111117E7F494949363E414111
:1008700041227F4141221C7F494949417F090901A9
:10088000013E414151327F0808087F00417F41000D
:100890002040413F017F081422417F404040407F7B
:1008A0000204027F7F0408107F3E4141413E7F09E0
:1008B0000909063E4151215E7F09192946464949E9
:1008C000493101017F01013F4040403F1F2040204E
:1008D0001F7F2018207F6314081463030478040327
:1008E000615149454300007F414102040810204105
:1008F000417F0000040201020440404040400001EA
:1009000002040020545454787F4844443838444406
:100910004420384444487F3854545418087E090110
:1009200002081454543C7F0804047800447D4000BD
:100930002040443D00007F10284400417F40007C5F
:10094000041804787C0804047838444444387C143F
:10095000141408081414187C7C080404084854541F
:100960005420043F4440203C4040207C1C20402038
:100970001C3C4030403C44281028440C5050503C13
:100980004464544C44000836410000007F000000DD
:100990004136080008082A1C08081C2A0808000616
:1009A0000909060000000800020100000304070016
:1009B0000000000000000001020408102040800137
:1009C0000204081020010204081020040404040496
:1009D00004040402020202020203030303030300ED
:1009E0000000002300260029000000000025002848
:1009F000002B0000000000240027002A00008105D1
:100A000042205B2411241FBECFEFD8E0DEBFCDBF54
:100A100012E0A0E0B1E0E6E4FCE502C005900D9232
:100A2000A832B107D9F723E0A8E2B2E001C01D92D5
:100A3000A43EB207E1F719E0C4E0DAE004C022976F
:100A4000FE010E94072ECE3FD107C9F70E949B2AC4
:100A50000C94212E0C94000088E292E00C940C126D
:100A600081E00E94C82788E292E00E94C90588E2DE
:100A700092E00E94D10588E292E00E94970688E207
:100A800092E00E948D1388E292E00E945A0688E26A
:100A900092E00E94FA0988E292E00E94DA0D88E270
:100AA00092E00E943A1788E292E00E94AC1341E083
:100AB00050E06CE275E080E00E94732641E050E077
:100AC0006CE275E081E00C94732688E292E00E946B
:100AD0003A1788E292E00E94AC1388E292E00E940A
:100AE000B71888E292E00E94DD1188E292E00E944D
:100AF000391088E292E00E94CF1388E292E00C94D1
:100B0000B20888E292E00C94C5050C940B2E0C946C
:100B1000132ECF92DF92EF92FF92CF93DF93EC01EF
:100B200080E090E00E94DE2B20E032E848EC56E4C2
:100B30000E94142B0E94FB2C6B017C016E857F852B
:100B400080E090E00E94DE2B9B01AC01C701B60162
:100B50000E94142B28EC3EEC4BE55BE30E94AC2A90
:100B60009B01AC0160E070E080E89FE30E94142BE1
:100B700023E333E948E853E40E94AB2ADF91CF91A5
:100B8000FF90EF90DF90CF9008958B5B9F4F0C9478
:100B9000FA1F60E082E00E94112860E083E00C947C
:100BA0001128CF93DF93EC0161E082E00E944A2894
:100BB00061E083E00E944A288BE193E00E94CD230C
:100BC00060E070E0CE018B5B9F4F0E940820FE0129
:100BD000EE53FF4F10821BAE739640E050E060E88A
:100BE0007FE34083518362837383349640835183D0
:100BF000628373831CAE7697108281E08BA3EB56E1
:100C0000F10911821082329611821082329611827D
:100C10001082349611821082329611821082ED5920
:100C2000FF4F108231961082319610823A961082D0
:100C300011821282138237971082E456F1091182D1
:100C40001082EB59FF4F1082339780831EA2B0971A
:100C500010821182128213823896108211821282BF
:100C6000138280E090E0FE01E80FF91FE859FF4F82
:100C700011821082029680329105A9F7FE01E45597
:100C8000FF4F1082118212821382389610821182D5
:100C90001282138280E090E0FE01E80FF91FE8570E
:100CA000FF4F11821082029680329105A9F7DF91E1
:100CB000CF9108951F93CF93DF93EC01CB5BDF4F70
:100CC0002AE030E24FEF68EB77E0CE010E94F11F9F
:100CD00040E060E0CE010E940D206FE071E0CE01A7
:100CE0000E94E72848E060E0CE010E940D206FE1FD
:100CF00071E0CE010E94E72815E048E06EE4CE01E5
:100D00000E940D204AE050E0612FCE010E94A029F0
:100D100068EE73E080E090E00E945A27115069F776
:100D200060E0CE01DF91CF911F910C941F200F93B3
:100D30001F93CF93DF93EC0184E690E00E9485053A
:100D4000883609F0ECC080E090E00E948505182FFD
:100D500081E090E00E948505212F30E0322F22278C
:100D6000282B3B832A8385E090E00E9485058D8FA8
:100D700088E090E00E948505888F89E090E00E94DD
:100D8000850589A383E190E00E948505182F84E101
:100D900090E00E948505212F30E0322F2227282B5A
:100DA0003F872E8784E090E00E94850591E08111C5
:100DB00001C090E09EA38CE090E00E9485058F8F9B
:100DC0008DE090E00E94850588A38EE090E00E946F
:100DD00085058E8F86E090E00E948505182F87E0BC
:100DE00090E00E948505212F30E0322F2227282B0A
:100DF000398B288B8FE090E00E948505182F80E1C9
:100E000090E00E948505212F30E0322F2227282BE9
:100E10003D8B2C8B81E190E00E948505182F82E1AB
:100E200090E00E948505212F30E0322F2227282BC9
:100E30003B872A878AE090E00E948505182F8BE087
:100E400090E00E948505212F30E0322F2227282BA9
:100E50003987288789E190E00E948505182F8AE16B
:100E600090E00E948505212F30E0322F2227282B89
:100E70003D832C838FE190E00E948505898F80E27D
:100E800090E00E9485058AA38DE190E00E9485058F
:100E9000182F8EE190E00E948505212F30E0322F3F
:100EA0002227282B3B8B2A8B86E290E00E94850527
:100EB000182F87E290E00E948505212F30E0322F25
:100EC0002227282B3F8B2E8B88E290E00E948505FD
:100ED000182F89E290E00E948505212F30E0322F03
:100EE0002227282B3D872C8787E190E00E948505EB
:100EF000182F88E190E00E948505212F30E0322FE5
:100F00002227282B38AB2FA785E190E00E9485058A
:100F10008BAB86E190E00E9485058CAB0CC168E646
:100F200084E690E00E94870566E680E090E00E94FB
:100F3000870566E681E090E00E9487056BE085E02A
:100F400090E00E9487056AE088E090E00E948705B3
:100F500061E089E090E00E9487056FE083E190E026
:100F60000E94870564E984E190E00E94870560E0C3
:100F700084E090E00E94870564E18CE090E00E94AC
:100F800087056EE18DE090E00E94870562E08EE0CB
:100F900090E00E9487056FEA86E090E00E94870556
:100FA00068EC87E090E00E9487056EE78FE090E0B4
:100FB0000E9487056EEE80E190E00E9487056AED51
:100FC00081E190E00E94870560EC82E190E00E9460
:100FD000870562E08AE090E00E94870561E38BE08C
:100FE00090E00E94870566E689E190E00E9487050F
:100FF00066E68AE190E00E9487056BE08CE190E074
:101000000E9487056AE08FE190E00E94870561E019
:1010100080E290E00E9487056FE08AE290E00E9403
:10102000870564E98BE290E00E94870560E08BE130
:1010300090E00E94870564E183E290E00E948705CA
:101040006EE184E290E00E94870562E085E290E034
:101050000E9487056FEA8DE190E00E94870568ECA9
:101060008EE190E00E9487056EE786E290E00E94A4
:1010700087056EEE87E290E00E9487056AED88E2C0
:1010800090E00E94870560EC89E290E00E9487056D
:1010900062E081E290E00E94870561E382E290E0F5
:1010A0000E94870566E676E67B836A838BE08D8FF8
:1010B0001AE0188FA1E0A9A384E99FE09F878E879B
:1010C0001EA204E10F8F8EE188A382E08E8F48EC90
:1010D0005FEA598B488B2EEE3EE73D8B2C8B80ECE4
:1010E0009AED9B878A87E1E3F2E0F987E8877D83C1
:1010F0006C83198FAAA35B8B4A8B3F8B2E8B9D87AA
:101100008C876FEF87E190E00E9487056FEF88E1A1
:1011100090E00E9487056AE085E190E00E948705E3
:1011200064E186E190E00E9487058FEF9FEF98AB26
:101130008FA71BAB0CAB6A817B81CE010E94890516
:101140006FA378A789A79AA76C817D81CE010E94A1
:1011500089056BA77CA78DA79EA7DF91CF911F91D3
:101160000F910895CF93DF93EC01FC01E653FF4FFD
:101170008081882309F484C010823E97408150E02A
:101180004132510508F07CC0FA01EC5CFF4F0C9431
:10119000052E6B8180E090E00E9487056A8181E0E6
:1011A00090E06AC06F8583E190E00E9487056E85BC
:1011B00084E190E061C06EA184E090E05DC06D8D3F
:1011C00085E090E059C0698986E090E00E9487053B
:1011D000688987E090E050C0688D88E090E04CC05E
:1011E00069A189E090E048C069858AE090E00E94AA
:1011F000870568858BE090E03FC06F8D8CE090E0C4
:101200003BC068A18DE090E037C06E8D8EE090E02D
:1012100033C06D898FE090E00E9487056C8980E182
:1012200090E02AC06B8581E190E00E9487056A8585
:1012300082E190E021C06D8189E190E00E94870504
:101240006C818AE190E018C0698D8FE190E014C054
:101250006AA180E290E010C068A987E190E00E9456
:1012600087056FA588E190E007C06BA985E190E054
:1012700003C06CA986E190E0DF91CF910C948705C3
:10128000DF91CF910895CF92DF92EF92FF920F936B
:101290001F93CF93DF93C62E7A01FC0124E0629F57
:1012A000E00DF11D1124EF01C855DF4F08811981B0
:1012B0002A813B81E055FF4F4081518162817381DA
:1012C000A0E1CA9E60011124C40ED51ECC0CDD1C09
:1012D000C80ED91ED601A859BF4F8D919C91119768
:1012E000ED92FC920E0D1F1D211D311D081B190BC7
:1012F00021093109088319832A833B83D901C80155
:10130000C4E0B695A79597958795CA95D1F74F5F95
:101310005F4F6F4F7F4F403151056105710529F0D7
:10132000408351836283738304C0108211821282CE
:101330001382DF91CF911F910F91FF90EF90DF907B
:10134000CF9008958F929F92AF92BF92CF92DF92EB
:10135000EF92FF926A017B01222369F023E333E9D4
:1013600048E853E4C701B6010E94AC2A2FEB3EEDDA
:1013700041E053E431C0FC016685778580E090E070
:101380000E94DE2B4B015C01B7FAB094B7F8B09421
:1013900023E333E948E853E4C701B6010E94AC2ACD
:1013A0009B01AC0160E070E080E89FE30E94142B99
:1013B0009B01AC0168EC7EEC8BE59BE30E94AB2AC1
:1013C0009B01AC01C501B4010E946E2D0E94812BCE
:1013D00020E032E848EC56E40E946E2D0E94B22BC9
:1013E000CB01FF90EF90DF90CF90BF90AF909F9098
:1013F0008F900895CF93DF93EC01CB5BDF4F2AE012
:1014000030E24FEF68EB77E0CE010E94F11F40E041
:1014100066E0CE010E940D206CE271E0CE010E94D8
:10142000E72848E060E0CE010E940D2060E371E013
:10143000CE010E94E72840E068E4CE010E940D2022
:1014400066E371E0CE010E94E72848E068E4CE013F
:101450000E940D206AE371E0CE010E94E72840E17E
:1014600068E4CE010E940D206EE371E0CE010E947F
:10147000E72848E166E0CE010E940D2062E471E0B9
:10148000CE010E94E72840E260E0CE010E940D20DC
:1014900066E471E0CE010E94E72848E168E4CE01ED
:1014A0000E940D206CE471E0CE010E94E72840E22A
:1014B00068E4CE010E940D2060E571E0CE010E943B
:1014C000E72848E268E4CE010E940D2064E571E05F
:1014D000CE010E94E72840E366E0CE010E940D2085
:1014E00068E571E0CE010E94E72848E360E0CE01A4
:1014F0000E940D206EE571E0CE01DF91CF910C943A
:10150000E728CF92DF92EF92FF920F931F93CF9332
:10151000DF938C01EC01CB5BDF4F2AE030E24FEF31
:1015200068EB77E0CE010E94F11F40E364E2CE0158
:101530000E940D20F801C5A8D6A8E7A8F0AC20E0CD
:1015400030E040E251E4C701B6010E94102B87FF52
:1015500003C067E771E00CC020E030E048EC52E4E3
:10156000C701B6010E94102B87FF05C068E771E034
:10157000CE010E94E728F80145A956A967A970ADD8
:1015800022E030E0CE01DF91CF911F910F91FF90CB
:10159000EF90DF90CF900C94982ACF92DF92EF9249
:1015A000FF920F931F93CF93DF938C016A017B010E
:1015B000EC01CB5BDF4F2AE030E24FEF68EB77E0E6
:1015C000CE010E94F11F40E36EE4CE010E940D2087
:1015D000F80184AD81110DC065E671E0CE01DF91A7
:1015E000CF911F910F91FF90EF90DF90CF900C94CF
:1015F000E72820E030E040E251E4C701B6010E9454
:10160000102B87FF03C067E771E00CC020E030E0DB
:1016100048EC52E4C701B6010E94102B87FF05C0B9
:1016200068E771E0CE010E94E72822E030E0B701D0
:10163000A601CE01DF91CF911F910F91FF90EF9006
:10164000DF90CF900C94982A0F931F93CF93DF9342
:101650008C01EC01CB5BDF4F2AE030E24FEF68EB0F
:1016600077E0CE010E94F11F40E068E1CE010E94C8
:101670000D2020E030E040E251E4F80167A170A5C0
:1016800081A592A50E94102B87FF05C068E771E035
:10169000CE010E94E728F80147A150A561A572A5D7
:1016A00023E030E0CE01DF91CF911F910F910C9498
:1016B000982A0F931F93CF93DF938C01EC01CB5BA0
:1016C000DF4F2AE030E24FEF68EB77E0CE010E9477
:1016D000F11F48E168E1CE010E940D2020E030E0DA
:1016E00040E251E4F80167A170A581A592A50E948E
:1016F000102B87FF05C068E771E0CE010E94E72844
:10170000F80143A554A565A576A523E030E0CE01F8
:10171000DF91CF911F910F910C94982ACF92DF9275
:10172000EF92FF920F931F93CF93DF938C016A0187
:101730007B01EC01CB5BDF4F2AE030E24FEF68EB3F
:1017400077E0CE010E94F11F48E06EE1CE010E94D9
:101750000D20F801E354FF4F8081882319F06CE6D7
:1017600071E008C0F801E154FF4F8081882369F0DF
:1017700063E771E0CE01DF91CF911F910F91FF9050
:10178000EF90DF90CF900C94E72820E030E040E22B
:1017900051E4C701B6010E94102B87FF05C068E71E
:1017A00071E0CE010E94E72820E030E048EC52E4EE
:1017B000C701B6010E94B52C87FD03C022E030E0CE
:1017C00002C023E030E0B701A601CE01DF91CF9146
:1017D0001F910F91FF90EF90DF90CF900C94982A7B
:1017E000CF92DF92EF92FF920F931F93CF93DF93ED
:1017F0008C016A017B01EC01CB5BDF4F2AE030E218
:101800004FEF68EB77E0CE010E94F11F40E26EE1FE
:10181000CE010E940D20F801E254FF4F8081882301
:1018200019F06CE671E008C0F801E054FF4F8081C8
:10183000882369F063E771E0CE01DF91CF911F91BA
:101840000F91FF90EF90DF90CF900C94E72820E06D
:1018500030E040E251E4C701B6010E94102B87FF3F
:1018600005C068E771E0CE010E94E72820E030E083
:1018700048EC52E4C701B6010E94B52C87FD03C0B5
:1018800022E030E002C023E030E0B701A601CE0143
:10189000DF91CF911F910F91FF90EF90DF90CF904C
:1018A0000C94982ACF92DF92EF92FF92CF93DF931E
:1018B0006A017B01EC01CB5BDF4F2AE030E24FEFA6
:1018C00068EB77E0CE010E94F11F40E06AE5CE01AF
:1018D0000E940D2020E030E0A901C701B6010E945E
:1018E000102B87FD05C068E771E0CE010E94E72854
:1018F00022E030E0B701A601CE01DF91CF91FF9049
:10190000EF90DF90CF900C94982ACF92DF92EF92D5
:10191000FF92CF93DF936A017B01EC01CB5BDF4F3A
:101920002AE030E24FEF68EB77E0CE010E94F11F32
:1019300048E16AE5CE010E940D2020E030E0A901D7
:10194000C701B6010E94102B87FD05C068E771E052
:10195000CE010E94E72822E030E0B701A601CE01C7
:10196000DF91CF91FF90EF90DF90CF900C94982A69
:101970000F931F93CF93DF938C01EC01CB5BDF4F71
:101980002AE030E24FEF68EB77E0CE010E94F11FD2
:1019900048E06AE5CE010E940D20F801808D8A3072
:1019A00018F467E771E004C0843628F468E771E052
:1019B000CE010E94E7284AE050E0F801608DCE0198
:1019C000DF91CF911F910F910C94A0290F931F933A
:1019D000CF93DF938C01EC01CB5BDF4F2AE030E249
:1019E0004FEF68EB77E0CE010E94F11F40E26AE51D
:1019F000CE010E940D20F801818D8A3018F467E72E
:101A000071E004C0843628F468E771E0CE010E94DA
:101A1000E7284AE050E0F801618DCE01DF91CF91D7
:101A20001F910F910C94A029CF92DF92EF92FF9219
:101A30000F931F93CF93DF938C01EC01CB5BDF4FB0
:101A40002AE030E24FEF68EB77E0CE010E94F11F11
:101A5000D8019196EC91F0E0EE0FFF1FE654FE4F97
:101A60006591749180E090E00E94DE2B20E030E0F0
:101A700048EC52E40E94142B6B017C0140E16AE5C2
:101A8000CE010E940D20F80181A1833090F48130B5
:101A900069F46AE771E0CE01DF91CF911F910F9158
:101AA000FF90EF90DF90CF900C94E72822E030E099
:101AB00011C0813240F468E771E0CE010E94E7284E
:101AC00021E030E007C067E771E0CE010E94E7281F
:101AD00020E030E0B701A601CE01DF91CF911F9148
:101AE0000F91FF90EF90DF90CF900C94982ACF92B7
:101AF000DF92EF92FF920F931F93CF93DF938C01AE
:101B0000EC01CB5BDF4F2AE030E24FEF68EB77E090
:101B1000CE010E94F11FD8019296EC91F0E0EE0FF9
:101B2000FF1FE654FE4F6591749180E090E00E94A3
:101B3000DE2B20E030E048EC52E40E94142B6B01D5
:101B40007C0148E26AE5CE010E940D20F80182A1E5
:101B5000833090F4813069F46AE771E0CE01DF915F
:101B6000CF911F910F91FF90EF90DF90CF900C9449
:101B7000E72822E030E011C0813240F468E771E0EC
:101B8000CE010E94E72821E030E007C067E771E05E
:101B9000CE010E94E72820E030E0B701A601CE0187
:101BA000DF91CF911F910F91FF90EF90DF90CF9039
:101BB0000C94982ACF93DF93EC010E94240BCE0162
:101BC0000E94B80CCE010E94140DCE010E94590B48
:101BD000CE010E94E60CCE010E94770DCE01DF916E
:101BE000CF910C94810ACF92DF92EF92FF92CF9324
:101BF000DF936A017B01EC01CB5BDF4F2AE030E22F
:101C00004FEF68EB77E0CE010E94F11F48E364E2FA
:101C1000CE010E940D2029E23CE54FE151E4C701CD
:101C2000B6010E94102B87FF03C067E771E00CC06C
:101C300020E030E048EC52E4C701B6010E94102BCE
:101C400087FF05C068E771E0CE010E94E72822E027
:101C500030E0B701A601CE01DF91CF91FF90EF9068
:101C6000DF90CF900C94982ACF93DF93EC01CB5B5D
:101C7000DF4F60E0CE010E941F202AE030E24FEFEC
:101C80006CEA73E0CE010E94F11F44E06CE0CE01EB
:101C90000E940D2063E871E0CE010E94E7282AE04F
:101CA00030E240E068EB77E0CE010E94F11F40E2B5
:101CB0006EE0CE010E940D2060E971E0CE010E942D
:101CC000E7282AE030E24FEF66E872E0CE010E949A
:101CD000F11F49E160E0CE010E940D206FE971E043
:101CE000CE010E94E7284AE264E2CE010E940D2064
:101CF00066EA71E0CE010E94E72868EE73E080E0BA
:101D000090E0DF91CF910C945A27CF93DF93EC01B1
:101D1000CB5BDF4F60E0CE010E941F202AE030E263
:101D20004FEF68EB77E0CE010E94F11F40E066E0E4
:101D3000CE010E940D206DEB71E0CE010E94E728DC
:101D400048E066E0CE010E940D2064EC71E0CE0117
:101D50000E94E72840E166E0CE010E940D206BEC76
:101D600071E0CE010E94E72848E166E0CE010E94C2
:101D70000D2062ED71E0CE010E94E72840E266E0AE
:101D8000CE010E940D2069ED71E0CE010E94E7288E
:101D900048E266E0CE010E940D2061EE71E0CE01C6
:101DA0000E94E72840E366E0CE010E940D2068EE25
:101DB00071E0CE010E94E72848E366E0CE010E9470
:101DC0000D206FEE71E0CE01DF91CF910C94E728EA
:101DD0000F931F93CF93DF938C01EC01CB5BDF4F0D
:101DE0002AE030E24FEF68EB77E0CE010E94F11F6E
:101DF00040E06AE2CE010E940D204AE050E0F80186
:101E0000678DCE010E94A02967E771E0CE01DF91C6
:101E1000CF911F910F910C94E7280F931F93CF93AD
:101E2000DF938C01EC01CB5BDF4F2AE030E24FEF18
:101E300068EB77E0CE010E94F11F48E06AE2CE0134
:101E40000E940D204AE050E0F80160A1CE010E94FE
:101E5000A02967E771E0CE01DF91CF911F910F912B
:101E60000C94E7280F931F93CF93DF938C01EC0121
:101E7000CB5BDF4F2AE030E24FEF68EB77E0CE013B
:101E80000E94F11F40E16AE2CE010E940D204AE06B
:101E900050E0F801668DCE010E94A02967E771E04D
:101EA000CE01DF91CF911F910F910C94E7280F93F2
:101EB0001F93CF93DF938C01EC01CB5BDF4F2AE0C4
:101EC00030E24FEF68EB77E0CE010E94F11F48E16E
:101ED0006AE2CE010E940D20F801608971894AE012
:101EE00050E0CE01DF91CF911F910F910C94A72963
:101EF0000F931F93CF93DF938C01EC01CB5BDF4FEC
:101F00002AE030E24FEF68EB77E0CE010E94F11F4C
:101F100040E26AE2CE010E940D20F80164897589D1
:101F20004AE050E0CE010E94A72967E771E0CE01A8
:101F3000DF91CF911F910F910C94E7280F931F937E
:101F4000CF93DF938C01EC01CB5BDF4F2AE030E2D3
:101F50004FEF68EB77E0CE010E94F11F48E26AE2A2
:101F6000CE010E940D20F801628573854AE050E0A1
:101F7000CE01DF91CF911F910F910C94A729CF92A1
:101F8000DF92EF92FF92CF93DF937C01EC01CB5B6A
:101F9000DF4F2AE030E24FEF68EB77E0CE010E949E
:101FA000F11F40E366E3CE010E940D20F70160853A
:101FB000718580E090E00E94DE2B20E030E040E878
:101FC0005EE30E946E2D20E030E044EA51E40E947E
:101FD000AB2A6B017C0120E030E047EC52E40E9428
:101FE000102B87FF05C068E771E0CE010E94E7284B
:101FF00020E030E0B701A601CE01DF91CF91FF9044
:10200000EF90DF90CF900C94982ACF92DF92EF92CE
:10201000FF92CF93DF936A017B01EC01CB5BDF4F33
:102020002AE030E24FEF68EB77E0CE010E94F11F2B
:1020300048E366E3CE010E940D2020E030E048EC4A
:1020400052E4C701B6010E94102B87FF05C068E764
:1020500071E0CE010E94E72820E030E0B701A60140
:10206000CE01DF91CF91FF90EF90DF90CF900C9455
:10207000982A2F923F924F925F927F928F929F92D7
:10208000AF92BF92CF92DF92EF92FF920F931F9386
:10209000CF93DF931F92CDB7DEB71C01FC01E9534C
:1020A000FF4F8081882309F4B3C00E942B274B0186
:1020B0005C012B01F10183A1813049F0843059F09A
:1020C000873069F420E3722E34E2398308C0712C22
:1020D000F8E1F98304C038E1732E28E129838101F6
:1020E0000B5B1F4F2AE030E24FEF68EB77E0C8014F
:1020F0000E94F11FF10183A1813011F0843031F58C
:10210000F101EB52FF4FC080D180E280F38020E0EC
:1021100030E040E85FE3C701B6010E94102B811157
:1021200003C069816A5F36C02DEC3CEC4CEC5DE38A
:10213000C701B6010E94102B811103C069816E5E38
:1021400029C02AE037ED43E25CE31AC0873031F55D
:10215000F101E752FF4FC080D180E280F38020E0A0
:1021600030E040E85FE3C701B6010E94102B811107
:1021700003C06981645F0EC02DEC3CEC4CEC5DE368
:10218000C701B6010E94102B6981811102C0685EEF
:1021900001C0625E472DC8010E940D206101F2E678
:1021A000CF0ED11CF601808191814816590681F12C
:1021B0009401281B390BC9018F35914048F17101F9
:1021C00085ECE80EF11CF7018081882331F068E787
:1021D00071E0C8010E94E72813C0F10183A181309A
:1021E00021F4C1010E94240B0BC0843021F4C101F1
:1021F0000E94590B05C0873019F4C1010E94810A61
:10220000F701808191E089278083F60191828082A5
:102210000F90DF91CF911F910F91FF90EF90DF9082
:10222000CF90BF90AF909F908F907F905F904F9096
:102230003F902F900895EF92FF920F931F93CF93AB
:10224000DF93E62EF42E122FEC01CB5BDF4F2AE05A
:1022500030E240E068EB77E0CE010E94F11F6AEFC8
:102260006E0D4F2DCE010E940D2068E771E0CE016A
:102270000E94E7282AE030E24FEF68EB77E0CE01DA
:102280000E94F11F6AEF610F402FCE010E940D20C6
:1022900068E771E0CE01DF91CF911F910F91FF9020
:1022A000EF900C94E7280F931F93CF93DF93162F93
:1022B000FC0143A1EC01C953DF4F4130C9F1443067
:1022C00009F442C0473009F44CC0188250E0413153
:1022D000510508F06DC0FA01EB5AFF4F0C94052E22
:1022E000EC01CB5BDF4F2AE030E24FEF68EB77E0A9
:1022F000CE010E94F11F133059F020F4123079F40E
:1023000048E009C0153031F0163049F448E203C006
:1023100040E101C040E262E4CE010E940D2068E786
:1023200071E0CE01DF91CF911F910F910C94E728BE
:1023300000E326E040E018C000E026E048E00FC0DF
:1023400008E028E440E10BC000E128E448E10CC0CB
:1023500008E126E040E203C000E228E448E268E445
:1023600025C008E228E440E366E00E941B1181E0FA
:1023700088831EC000E326E040E017C000E026E0AE
:1023800048E013C008E026E040E10FC000E126E08D
:1023900048E10BC008E126E040E207C000E226E089
:1023A00048E203C008E226E040E366E00E941B1119
:1023B000DF91CF911F910F9108950F931F93CF93AA
:1023C000DF93EC018C0105531F4FF80180818823B6
:1023D000F1F00E942B27DE01A453BF4F2C91FE0188
:1023E000EA59FF4F222319F01C92718360832081E8
:1023F0003181621B730B6039714048F0F801108223
:102400006BA11BA2CE010E94531181E08BA3DF912F
:10241000CF911F910F9108958F929F92AF92BF928B
:10242000CF92DF92EF92FF920F931F93CF93DF93A0
:1024300000D0CDB7DEB74C010E942B275C01840190
:1024400003531F4FD8018C91B62FB81BB23008F43C
:102450006AC0F401EA5AFF4F7F01B13510F01182D2
:10246000108283E069837A830E9480286C0182E075
:102470000E94802821E030E069817A81CD2811F422
:1024800020E030E0220F331F41E0892B09F440E0C7
:10249000D42ED22AF401E654FF4F8081D7012D912A
:1024A0003C91A90143705527452B91F5B4E08B9FD2
:1024B000C00111244D2D482B81E0D401AE53BF4FF4
:1024C0008C934D3031F0443021F0423011F04B30DC
:1024D00061F48FEF9FEFD401AC5ABF4F11969C93DC
:1024E0008E9381E0A159BF4F8C934E3031F089EF2C
:1024F000840F823010F0413059F4D401AC5ABF4FF0
:1025000041E050E011965C934E93A159BF4F1C924D
:10251000D082F80160837183A282B3822F5F3F4F24
:10252000D7012D933C930F900F90DF91CF911F9186
:102530000F91FF90EF90DF90CF90BF90AF909F9062
:102540008F900895FF920F931F93CF93DF9300D046
:10255000CDB7DEB7DC01F62E062F10E001511109D0
:102560000831110508F0B6C00A591F4FF8010C9444
:10257000052E1A82DC968C91DC97882311F080E876
:102580008A8396968C91882309F4A4C08A818064FA
:1025900026C05D968C915D978983473031F0483035
:1025A00009F098C059968C911AC058968C9117C012
:1025B000473049F0483009F08DC014969C9114972B
:1025C00015968C915BC012969C91129713968C91E4
:1025D00055C05F968C915F97898390968C918A8382
:1025E00079C05E968C9174C0473049F0483009F04C
:1025F00071C052969C91529753968C913FC05096C1
:102600009C91509751968C9139C0473049F0483091
:1026100009F060C056969C91569757968C912EC0A3
:1026200054969C91549755968C9128C0473031F020
:10263000483009F04FC092968C9102C091968C91CF
:1026400090E0880F991FFC01E05EFD4F25913491C9
:1026500029838F5D9D4FFC0185919491C0CF4730B8
:1026600041F04830B9F51C969C911C971D968C91B1
:1026700005C01A969C911A971B968C919983AFCF9F
:1026800018969C91189719968C91F8CF81E020C0EC
:10269000FC01E25AFF4F80819181898301969183E9
:1026A000808318C093968C9193978983FD01EB5397
:1026B000FF4F808194CFDC968C9189830BC09F96CD
:1026C0009C919F97D0968C91D9CF8AE001C084E1EC
:1026D00089831A82642F8BE193E00E94D7236F2DA8
:1026E0008BE193E00E948E2342E050E0BE016F5FD9
:1026F0007F4F8BE193E00E9461238BE193E00E9486
:10270000582484E690E00E9482270F900F90DF917A
:10271000CF911F910F91FF9008951F93CF93DF9357
:10272000EC0111E147E0612FCE010E94A21248E0C6
:10273000612FCE010E94A2121F5F1C3199F71FE189
:1027400046E0612FCE010E94A2121F5F1332C1F733
:10275000DF91CF911F910895CF93DF93EC0184E136
:102760000E94CB2721E0853F91400CF420E08CAD06
:10277000821791F02CAF47E061E1CE010E94A212D6
:1027800048E061E1CE010E94A21246E06FE1CE0175
:10279000DF91CF910C94A212DF91CF910895CF9247
:1027A000DF92EF92FF92CF93DF93EC01FC01EE53A7
:1027B000FF4F8081882309F4B7C2108281E03896E8
:1027C00080834BA150E0FA013197E031F10508F028
:1027D000ABC2E258FF4F0C94052EFE01EC5AFF4F9E
:1027E00060817181882777FD8095982F0E94E02B6A
:1027F000FE01EB52FF4F20813181428153810E94C3
:102800006E2D2FA138A549A55AA50E94AC2A6B01AF
:102810007C0120E030E048EC52E40E94B52C181610
:102820002CF0CFA2D8A6E9A6FAA608C040E050E056
:1028300068EC72E44FA358A769A77AA720E030E0BC
:1028400040EE50E46FA178A589A59AA50E94102BAF
:1028500087FF08C040E050E060EE70E44FA358A747
:1028600069A77AA74FA158A569A57AA52BADCE0176
:102870000E94A2099B838A8347E064E1CE010E9403
:10288000A212CE010E94240BFE01E953FF4F1082D9
:10289000C454DF4F188248C2FE01EC5AFF4F8081BA
:1028A000988D890F873908F086E9888F888D811186
:1028B00002C081E0888F47E062E1CE010E94A2124F
:1028C000CE010E94B80CC454DF4F88E02CC2FE0138
:1028D000EC5AFF4F808199A1890F833308F082E37E
:1028E00089A389A1811102C081E089A347E063E146
:1028F000CE010E94A212CE010E94140DC454DF4FDB
:1029000089E011C2FE01EC5AFF4F60817181882776
:1029100077FD8095982F0E94E02BFE01EB52FF4F30
:1029200020813181428153810E946E2D2BA53CA5CF
:102930004DA55EA50E94AC2A6B017C0120E030E031
:1029400048EC52E40E94B52C18162CF0CBA6DCA65D
:10295000EDA6FEA608C040E050E068EC72E44BA78C
:102960005CA76DA77EA720E030E040EE50E46BA5A9
:102970007CA58DA59EA50E94102B87FF08C040E076
:1029800050E060EE70E44BA75CA76DA77EA74BA557
:102990005CA56DA57EA52BADCE010E94A2099D83ED
:1029A0008C8348E064E1CE010E94A212CE010E9415
:1029B000590BFE01E953FF4F1082C454DF4F89E1E8
:1029C000B2C1FE01EC5AFF4F8081998D890F873982
:1029D00008F086E9898F898D811102C081E0898F95
:1029E00048E062E1CE010E94A212CE010E94E60CF4
:1029F000C454DF4F8FE197C1FE01EC5AFF4F808135
:102A00009AA1890F833308F082E38AA38AA18111F6
:102A100002C081E08AA348E063E1CE010E94A212D5
:102A2000CE010E94770DC454DF4F80E27CC1FE01CD
:102A3000EC5AFF4F60817181882777FD8095982F30
:102A40000E94E02BFE01E752FF4F2081318142813D
:102A500053810E946E2D2DA93EA94FA958AD0E9409
:102A6000AC2A6B017C0120E030E042E053E40E949C
:102A7000B52C18162CF0CDAADEAAEFAAF8AE08C025
:102A800040E050E062E073E44DAB5EAB6FAB78AF1B
:102A900020E030E0A9016DA97EA98FA998AD0E9420
:102AA000102B87FF04C01DAA1EAA1FAA18AE26E677
:102AB00036ED43EA53E46DA97EA98FA998AD0E9433
:102AC0006E2D9B01AC0160E07FEF8FE797E40E94E1
:102AD000AB2A0E94B22B78AB6FA746E060E2CE0132
:102AE0000E94A212CE010E94810AFE01E953FF4F0B
:102AF0001082C454DF4F87E116C1FE01EC5AFF4F2C
:102B000080819F8D890F8F3108F08EE18F8F8F8D9F
:102B1000811102C081E08F8F47E065E1CE010E9404
:102B2000A21248E065E1CE010E94A212CE010E94ED
:102B3000E80EC454DF4F8CE0F6C0FE01EC5AFF4FA4
:102B4000808198A1890F8F3108F08EE188A388A138
:102B5000811102C081E088A347E065E1CE010E94B7
:102B6000A21248E065E1CE010E94A212CE010E94AD
:102B70000D0FC454DF4F8DE0D6C0FE01EC5AFF4F5D
:102B800080819E8D890F8B3008F08AE08E8F8E8D2C
:102B9000811102C081E08E8F47E069E1CE010E9481
:102BA000A21248E069E1CE010E94A212CE010E9469
:102BB000320FC454DF4F8EE0B6C0FE01EC5AFF4F17
:102BC0002081318144E6429FC001439F900D112432
:102BD00028893989820F931F85362FEA920710F0D2
:102BE00084E69FEA998B888B88899989843E9E43E5
:102BF00020F484EE9EE3998B888B47E066E1CE015A
:102C00000E94A21248E066E1CE010E94A212CE010B
:102C10000E94570FC454DF4F86E085C0FE01EC5A76
:102C2000FF4F808191812C893D89820F931F803BCA
:102C300021E8920710F08FEA91E89D8B8C8B8C89AC
:102C40009D89873C9D4720F487EC9DE79D8B8C8B6D
:102C500047E068E1CE010E94A212CE010E94780FE7
:102C6000C454DF4F8FE05FC0FE01EC5AFF4F20815C
:102C7000318144E6429FC001439F900D11242A8573
:102C80003B85820F931F893C2FEA920710F088EC56
:102C90009FEA9B878A878A859B8580329E4420F4A1
:102CA00080E29EE49B878A8747E06AE1CE010E942A
:102CB000A21248E06AE1CE010E94A212CE010E9457
:102CC0009E0FC454DF4F81E12EC0FE01EC5AFF4F2E
:102CD00080819181880F991F880F991F28853985D8
:102CE000820F931F893121E0920710F489E191E06E
:102CF00099878887888599858233924020F081E37F
:102D000092E09987888747E067E1CE010E94A2128E
:102D100048E067E1CE010E94A212CE010E94BF0FDF
:102D2000C454DF4F8AE08883DF91CF91FF90EF900A
:102D3000DF90CF900895DF92EF92FF920F931F9351
:102D4000CF93DF93EC01062FD42E642F8BE193E019
:102D50000E94D723602F8BE193E00E948E238BE1AA
:102D600093E00E94582484E690E00E9482276D2D13
:102D700070E042E050E08BE193E00E9455248BE14B
:102D800093E00E943623029759F48BE193E00E946E
:102D90003E23E82E8BE193E00E943E23F82EEFCFF6
:102DA00010E0F8017C97EE30F10508F05BC0E257C7
:102DB000FF4F0C94052E2E2D30E08F2D8370382B75
:102DC0002230310510F420E030E0F2FE03C03195EE
:102DD000219531093DA32CA387E0D81691F088E016
:102DE000D81240C0FE01E254FF4FF4FA882780F960
:102DF00080833296F5FA882780F98083C753DF4FA6
:102E00000EC0FE01E354FF4FF4FA882780F9808357
:102E10003296F5FA882780F98083C853DF4FF6FA97
:102E2000FF24F0F8F8821EC02E2D30E03F293F83AA
:102E30002E8318C02E2D30E03F293AAB29AB12C0AB
:102E40002E2D30E03F293AAF29AF0CC0EF9605C0D8
:102E5000CF5BDF4F02C0CD5BDF4F2E2D30E03F292F
:102E600039832883DF91CF911F910F91FF90EF90CD
:102E7000DF9008950F931F93CF93DF938C01EC01A4
:102E8000CF52DF4F688179818A819B812CE231E0CA
:102E900040E050E00E94E32D672B682B692BF1F492
:102EA00047E06CE1C8010E949B16F80164A175A17E
:102EB000EA53FF4F8081811111C0882777FD8095EB
:102EC000982F0E94E02B2AE532E140E25CE30E9469
:102ED0006E2DAB01BC01C8010E94520C6881798142
:102EE0008A819B812CE231E040E050E00E94E32D9A
:102EF0006130710581059105D9F447E06DE1C801A4
:102F00000E949B16F8014081518160E0C8010E9437
:102F10004309BC01C8010E948905AB01BC01F8014D
:102F2000EA53FF4F8081811103C0C8010E948E0BBC
:102F3000688179818A819B812CE231E040E050E018
:102F40000E94E32D623071058105910511F547E07E
:102F50006EE1C8010E949B16F80166817781EA53F1
:102F6000FF4F80818823A9F080E090E00E94DE2B53
:102F700020E030E040E85EE30E946E2D20E030E08B
:102F800044EA51E40E94AB2AAB01BC01C8010E9493
:102F90000510688179818A819B812CE231E040E0D3
:102FA00050E00E94E32D6330710581059105E1F445
:102FB00046E063E2C8010E949B16F80161A972A96C
:102FC000EA53FF4F808181110FC080E090E00E94A2
:102FD000DE2B20E134E048E45BE30E946E2DAB0180
:102FE000BC01C8010E94CD0A688179818A819B81D8
:102FF0002CE231E040E050E00E94E32D64307105A6
:103000008105910539F548E06CE1C8010E949B16E5
:10301000F80164A175A1EA53FF4F8081811111C0AD
:10302000882777FD8095982F0E94E02B2AE532E1D2
:1030300040E25CE30E946E2DAB01BC01C8010E941E
:10304000850CF801E753FF4F8081811103C0C8014F
:103050000E948D13688179818A819B812CE231E005
:1030600040E050E00E94E32D653071058105910537
:10307000D9F448E06DE1C8010E949B16F801408137
:10308000518161E0C8010E944309BC01C8010E944E
:103090008905AB01BC01F801EA53FF4F8081811122
:1030A00003C0C8010E94F00B688179818A819B81ED
:1030B0002CE231E040E050E00E94E32D66307105E3
:1030C0008105910541F549E066E2C8010E949B1621
:1030D000F80161AD72ADEA53FF4F808181111BC0D1
:1030E00080E090E00E94DE2B20E030E040EA50E4F7
:1030F0000E946E2D20E030EC4FE754E40E94142B28
:1031000020E030E04CEF51E40E946E2DAB01BC0199
:10311000C8010E94F30D88819981AA81BB81019623
:10312000A11DB11D88839983AA83BB83DF91CF91B1
:103130001F910F910895CF93DF93EC010E94E80E49
:10314000CE010E940D0FCE010E94320FCE010E94CF
:10315000570FCE010E94780FCE010E949E0FCE0124
:103160000E94BF0FCE01DF91CF910C943A174F927E
:103170005F926F927F928F929F92AF92BF92CF9207
:10318000DF92EF92FF920F931F93CF93DF93EC01A7
:1031900085E10E94CB27853F914024F0FE01E55454
:1031A000FF4F108285E10E94CB27853F91400CF0B4
:1031B00017C10E942B276B017C01CB014E0168E5F2
:1031C000860E911CF40120813181A601421B530B14
:1031D000BE01645A7F4F3B018217930719F04233B7
:1031E000510568F4FE01E65AFF4F51834083F30115
:1031F00020813181240F351F3183208303C0FB01DF
:10320000118210828E010A531F4FF8012081211173
:10321000A4C0F301208131815E01293E334008F4CE
:103220003FC020E6A20EB11CF5012081318182173A
:10323000930709F4D2C0C601821B930B8D3B9240C9
:1032400008F4CBC0FE01EB53FF4F8081882309F4C3
:10325000C4C0369610828BA1823010F482E001C087
:103260008F5F8BA38BA1883010F081E08BA360E08F
:10327000CE010E945311FE01E554FF4F80818F5F04
:1032800080838B3008F4A6C088E08BA381E0F8012E
:103290008083F30111821082CE010E94340E9AC005
:1032A000F4E6AF0EB11CF50120813181821793073E
:1032B00009F493C0C601821B930B893C910508F465
:1032C0008CC08BA1811102C081E08BA38BA18130C6
:1032D00011F0843069F48E010B521F4FF8014080C9
:1032E0005180628073802FE632E143E85AE30EC0DA
:1032F000873051F58E0107521F4FF80140805180F1
:10330000628073802AE037ED43E25CE3C301B201DF
:103310000E94102B181674F420E030E040E251E4D3
:10332000C301B2010E94142BF80160837183828370
:1033300093834CC080E090E0A0E8BFE3F801808375
:103340009183A283B38342C0FE01E553FF4F81E026
:103350008083C453DF4F88833DC05E01F4E6AF0E27
:10336000B11CF5012081318182179307B1F1C601AB
:10337000821B930B893C910580F18BA18F5F8BA3FE
:10338000F30180819181893E934080F081E08BA39D
:10339000F801108260E0CE018B5B9F4F0E941F20DE
:1033A000CE010E94FA09CE010E94DA0D8BA189306C
:1033B00041F4CE010E94850ECE010E949B188AE046
:1033C0008BA38BA1813110F08AE08BA360E0CE014A
:1033D0000E945311F501D182C082F401D182C082D2
:1033E000DF91CF911F910F91FF90EF90DF90CF90E1
:1033F000BF90AF909F908F907F906F905F904F9015
:103400000895CF93DF93EC010E9446201B821A821D
:103410008AEF91E0998388831F8218868FE78987D6
:103420008FE38A871B861C861D861E86DF91CF91BF
:1034300008952F923F924F925F926F927F928F9258
:103440009F92AF92BF92CF92DF92EF92FF920F9333
:103450001F93CF93DF9300D0CDB7DEB71C01162F9B
:10346000D22EFE2CEC2C8F2D90E0840F911D202F5E
:1034700030E028173907C4F0242F277081E090E04E
:10348000022E01C0880F0A94EAF799249A94980EA4
:10349000842F887F882EC42ECF0CEC2DE87F7E2EC3
:1034A000AA24A394B12C4FC02D2DC1010E943E220D
:1034B00093C0E42DF0E0852D877002C0F595E79567
:1034C0008A95E2F7752F7770E0FF07C09501072E08
:1034D00001C0220F0A94EAF7622A5394852D87705F
:1034E00009F449C0773059F4452F487F612FC10155
:1034F0000E94CD20662DC1010E943421612C552DE2
:103500005F190515B0F6552E5F0C752F77705511A4
:1035100045C0C1F04FEF450F487F612FC1017A834D
:103520000E94CD20C1010E9409217A81F50101C0CC
:10353000EE0F7A95EAF76E2F619568236629C1012F
:103540000E9434211F5FD11608F446C0482D612F18
:10355000C1010E94CD20C1010E940921682E69206D
:103560005C2C472D612FC1010E94CD20C1010E941A
:103570000921482EC4CFFFE3F51508F4B3CF452D3C
:10358000487F612FC10159837A830E94CD20C101F8
:103590000E940921482E7A815981A4CF8FEF95018D
:1035A000072E01C0220F0A94EAF7E81202C0622A2D
:1035B00002C020956222773069F4452F487F612F41
:1035C000C10159830E94CD20662DC1010E94342182
:1035D000612C59815F5F99CF0F900F90DF91CF9150
:1035E0001F910F91FF90EF90DF90CF90BF90AF9021
:1035F0009F908F907F906F905F904F903F902F9013
:1036000008952F923F924F925F926F927F928F9286
:103610009F92AF92BF92CF92DF92EF92FF920F9361
:103620001F93CF93DF9300D01F92CDB7DEB79B835C
:103630008A83162FD42E922EFE2CEC2C8F2D90E008
:10364000840F911D202F30E028173907DCF0202F40
:1036500027702F5F81E090E0022E01C0880F0A944E
:10366000EAF7782E7194802F887F8983C02ECF1837
:10367000EC2DE87F5E2EAA24A394B12C8824839499
:103680008F1865C0292D8A819B810E943E22A1C08E
:103690002A94822D8770873061F4422D487F612FF4
:1036A0008A819B810E94CD208A819B810E94092171
:1036B000682E2D1430F1E62DF0E0822D877002C0C7
:1036C000F595E7958A95E2F7332D3770E0FF07C04F
:1036D000C501032E01C0880F0A94EAF7482A311168
:1036E0000DC0432D487F612F8A819B810E94CD2090
:1036F000642D8A819B810E943421412C3A942110AF
:10370000C7CF2F2C632C6F18462D420D21103CC0C3
:10371000482D430D842F8770282EC1F0487F612FDC
:103720008A819B810E94CD208A819B810E940921F0
:103730009501022C01C0220F0A94EAF76FEF620F85
:10374000682364298A819B810E9434211F5F91161E
:1037500008F43FC04981612F8A819B810E94CD205E
:103760008A819B810E940921482E47202C2C452DBF
:10377000612F8A819B810E94CD208A819B810E943A
:103780000921682E302E95CF642F6770FFEFEF125E
:1037900008C0C501062E01C0880F0A94EAF7482A1E
:1037A00008C09501062E01C0220F0A94EAF7209561
:1037B000422261110CC0487F612F8A819B810E9447
:1037C000CD20642D8A819B810E943421412C2A9432
:1037D0009BCF0F900F900F90DF91CF911F910F9182
:1037E000FF90EF90DF90CF90BF90AF909F908F9021
:1037F0007F906F905F904F903F902F900895CF9261
:10380000EF920F931F93CF93DF93EC016A3009F08F
:1038100087C08D819E81E0910503F0910603039698
:103820000995182FE0910503F09106038D819E8183
:10383000099581110BC08D819E81E0910503F09166
:10384000060301960995813009F46CC06C852985C1
:10385000621768F44D8581E09C819F3F09F480E008
:10386000E82EE194012F040FCE010E943E228B85A9
:10387000ED84212F30E080FD2CC00A85220F331FFC
:103880002E0D311D802F90E028173907ECF08E8522
:10389000811103C081E08E8747C081E09C819F3FFA
:1038A00009F480E0C82EC194E394E01A812F880FB8
:1038B000E80E298548856F81CE010E94191A8F81F3
:1038C0008C878A85811B29C08F818C87E394E10EC8
:1038D0000CC048856E2D70E0240F311D2617370768
:1038E00034F48F818C87EA94E11AED8617C08E85B7
:1038F000882381F281E09C819F3F09F480E0C82EFB
:10390000C194E394E41AE10E0A8529856F81CE0102
:103910000E94011B8F818C8788858D8781E004C080
:1039200080E002C0115092CFDF91CF911F910F9193
:10393000EF90CF9008952F923F924F925F926F92A7
:103940007F928F929F92AF92BF92CF92DF92EF922F
:10395000FF920F931F93CF93DF93CDB7DEB7669798
:103960000FB6F894DEBF0FBECDBF9E8B8D8B162F8A
:10397000DC0115968D919C911697892B19F480E0A6
:1039800090E006C3603228F1ED89FE898581968139
:10399000E0910503F091060303960995D82EAD89B1
:1039A000BE8915968D919C911697E0910503F09133
:1039B000060304960995C82EED89FE8985819681B6
:1039C000E0910503F0910603059609951C1540F456
:1039D000D6CF8D899E890E94FF1B8823A9F2D6C26B
:1039E000412F50E0E82EF12C97012C0D311D42178C
:1039F00053072CF62D2D30E03E832D83590137E0FF
:103A0000A30EB11CF3E0B594A794FA95E1F71C1945
:103A1000C12EE0910503F0910603AD89BE8915968C
:103A20008D919C9116970995811160C2ED89FE894F
:103A300085819681E0910503F09106030196099531
:103A4000823008F053C2AD89BE8915968D919C9144
:103A50001697E0910503F091060302960995E82E6A
:103A60001A9DC0011B9D900D1124E89E8001E99EC6
:103A7000100D11240A5F1F4F912CEE2009F47FCF07
:103A8000ED89FE898685882341F06AE0CF010E9496
:103A90009B1CAD89BE891E961C92ED89FE8983858B
:103AA0006E2C712C81FF15C0F48485819681E09184
:103AB0000503F09106030296099590E0861997098F
:103AC00097FD0196959587958F0DAD89BE891C96BA
:103AD0008C93ED89FE8984855301A80EB11CE09179
:103AE0000503F0910603AD89BE8915968D919C91D1
:103AF0001697099581110DC0ED89FE898581968102
:103B0000E0910503F09106030196099591E081305B
:103B100009F090E0A91AB108AD89BE8919968C9177
:103B2000199790E08A159B055CF56AE0CD010E942B
:103B30009B1CED89FE898685882341F06AE0CF01D0
:103B40000E949B1CAD89BE891E961C92ED89FE8940
:103B5000838581FF15C0F48485819681E0910503FA
:103B6000F09106030296099590E08619970997FD52
:103B70000196959587958F0DAD89BE891C968C937E
:103B8000E0910503F0910603AD89BE8915968D91EC
:103B90009C91169709958111DAC1ED89FE8985817D
:103BA0009681E0910503F091060301960995813015
:103BB00009F0CDC1AD2CF12C28E030E08D2D8770BF
:103BC000281B31093A8329839301200F311F388B39
:103BD0002F872A2D30E03C832B8322242394312C01
:103BE000FA1408F047C1AD89BE891D96BC901D9797
:103BF000BF0C4B2D487F1C966C911C97CD010E94E9
:103C0000CD208F2D8695869586958E9D90011124C9
:103C100038872F83412C512C8F2D90E09C01287FD9
:103C20004D815E81421B530B5A8749872F85388906
:103C30004F815885240F351F3C872B872B813C8172
:103C4000281B390B3E872D872B2D2770C22E4E1433
:103C500008F0B7C0FD1420F58F819885800F911F63
:103C6000840D951DAD89BE8915964D915C91169771
:103C7000E0910503F0910603840F951F0995882EA6
:103C8000992079F029853A852830310554F490E05F
:103C9000098002C0959587950A94E2F7882E01C0A5
:103CA000812CAD89BE8914968C91811101C08094BC
:103CB0003C2D8B2D8F29877091F44D855E85483082
:103CC00051056CF0AD89BE891B968C911B9782FFC4
:103CD00004C0CD010E940921882A682D6AC08D89FF
:103CE0009E893B8B0E940921C82E2F2D6B857C85D8
:103CF000640D751D3B89422F4770882D90E0042E7E
:103D000002C0959587950A94E2F780FF08C0C1012B
:103D1000032E01C0880F0A94EAF7C82A08C0C1011F
:103D2000032E01C0880F0A94EAF78095C822473015
:103D300061F5ED89FE8985819681E0910503F09119
:103D40000603860F971F298B3B8B6C8B7A8B09950B
:103D5000882E29893B896C897A89992079F08D810F
:103D60009E81821B910909974CF4882D90E009806F
:103D700002C0959587950A94E2F7882EAD89BE8991
:103D800014968C91811101C080942F5F3F5F383071
:103D900059F4ED89FE89838582FF0AC08D899E8949
:103DA0000E940921C82A04C02A1508F4A4CFF1CF23
:103DB0006C2D8D899E890E943421FFEF4F1A5F0A76
:103DC00043CFE0910503F0910603AD89BE891596B6
:103DD0008D919C911697099581110CC0ED89FE89F2
:103DE00085819681E0910503F0910603019609957E
:103DF0008130E1F14F2C512CC11007C08B819C8187
:103E00008419950908970CF0AAC08D899E890E9493
:103E10000921CC2009F49FC0B1010C2C01C0660F10
:103E20000A94EAF761502B813C8124193509283026
:103E300031054CF4A10102C0440F551F2A95E2F749
:103E40009A012195622BAD89BE8914969C9191119E
:103E500084C06095682BAD89BE891B968C911B9799
:103E600082FD85C08D899E890E943421FC18B8E0AE
:103E7000FB0EB6CEED89FE8984858E0D8487838501
:103E800081FF19C085819681E0910503F0910603B9
:103E900002960995AD89BE891C962C912E19280F82
:103EA00090E08619970997FD019695958795281BAF
:103EB000ED89FE892487E0910503F0910603AD8921
:103EC000BE8915968D919C9116970995811159C0BF
:103ED000ED89FE8985819681E0910503F0910603C5
:103EE00001960995813009F04CC050C006E010E001
:103EF000812C912CAD89BE8915968D919C91169738
:103F0000E0910503F09106032AEF200F2C1540F4F1
:103F1000800F911F0995880E911C0F5F1F4FEACFEC
:103F20008A9C90018B9C300D9A9C300D1124870146
:103F30000A5F1F4F020F131F2C2D30E02A5F3F4FE7
:103F4000820F931F0995E82E9924939496CDAA2465
:103F5000A394AD0C30CE60E066CF68237CCF61E0E7
:103F6000ED89FE898481811160E0619574CF6F3F96
:103F700009F478CFCD016C8B0E9409216C89682BE4
:103F800071CFED89FE8984858F5F848781E090E021
:103F900066960FB6F894DEBF0FBECDBFDF91CF910E
:103FA0001F910F91FF90EF90DF90CF90BF90AF9057
:103FB0009F908F907F906F905F904F903F902F9049
:103FC00008956D3011F00C949B1C81E090E00895F1
:103FD000FC018781680F64878085480F45871686B6
:103FE0000895FC01768365833093060320930503CF
:103FF00044830895CF93DF93EC010E94011A82E07D
:1040000092E09983888310921A03DF91CF910895EB
:104010000C94DE22FC01849108950F931F93CF939B
:10402000DF93EC01162F042F0E94CD20402F612F2B
:10403000CE01DF91CF911F910F910C94E81FFF9259
:104040000F931F93CF93DF93EC01F62E10E0412FD7
:1040500060E0CE010E940D2000E06F2D87E093E02C
:104060000E9434210F5F0038C1F7185F103479F7D0
:1040700040E060E0CE01DF91CF911F910F91FF9062
:104080000C94E81F87E093E00C94FA1F08956130C8
:1040900019F44098419A0895409A419808950E94D1
:1040A000472020982198229851988AB18F708AB918
:1040B000289829982A985998289A299A2A9A599A90
:1040C0008BB1806F8BB9429A4398589AC89500C0BB
:1040D00083B18170199982601A99846049998860C6
:1040E00099B15898907F892B08950E944720209875
:1040F0002198229851988AB18F708AB9429A439830
:10410000589AC89500C04F99FECF5898089560916D
:10411000160362956695669563700E947520429AB3
:10412000439A00C0589AC89500C083B1817019990C
:1041300082601A9984604999886099B15898907FF3
:10414000892B0895CF93C62F642F0E947520429823
:1041500043982098219822985198209A219A229A3F
:10416000519A8AB1806F8AB9289829982A985998C3
:10417000C0FD289AC1FD299AC2FD2A9AC3FD599A09
:104180008BB1C07F8F70C82BCBB900C0589AC8952F
:10419000C89500005898CF9108950F931F93CF931F
:1041A000DF93EC01162F80911603681304C08091F1
:1041B0001703481749F117FD27C0403428F510931D
:1041C000160340931703012F029506950695037079
:1041D000642F669566956695E02FF0E0E85EFC4FEB
:1041E0008081681731F06083686B402FCE010E9498
:1041F000A220612F6F736064402FCE01DF91CF91B9
:104200001F910F910C94A220DF91CF911F910F91DC
:104210000895EF92FF921F93CF93DF931F92CDB734
:10422000DEB77C016091160367FD16C069830E94AA
:104230008720C7010E948720182F80911A03698167
:10424000811110958FEF8093160340911703C701DA
:104250000E94CD20812F01C080E00F90DF91CF918F
:104260001F91FF90EF9008958F929F92BF92CF92EF
:10427000DF92EF92FF920F931F93CF93DF931F92E2
:10428000CDB7DEB74C01062FD0901603D7FCE9C09E
:10429000D294D694D69483E0D82230911703377005
:1042A00009F491C0C40139830E940921C82E6D2DE3
:1042B000C4010E9475204298439A20982198229820
:1042C0005198209A219A229A519A9AB1906F9AB94C
:1042D00000C0589A10E03981E32EF12CC80102C0C9
:1042E000880F991F3A95E2F79C012C2980911A03B7
:1042F00081112095289829982A98599820FD289A64
:1043000021FD299A22FD2A9A23FD599A8BB1207FFB
:104310008F70282B2BB9C895C89500005898C0906D
:1043200017032C2D30E0285F3F4F287F20343105C4
:104330000CF044C048E04C0D487F60911603C40166
:104340000E94CD20C4010E940921B82E6D2DC40108
:104350000E9475204298439A20982198229851985B
:10436000209A219A229A519A9AB1906F9AB900C0D4
:10437000589A28E030E02E193F09F80102C0F5955F
:10438000E7952A95E2F79F012B2980911A03811165
:104390002095289829982A98599820FD289A21FD37
:1043A000299A22FD2A9A23FD599A8BB1207F8F707A
:1043B000282B2BB9C895C895000058986091160312
:1043C0006F5F4C2D3FC06D2DC4010E947520429837
:1043D000439A2098219822985198209A219A229ABB
:1043E000519A8AB1806F8AB980911A038111009520
:1043F00000C0589A289829982A98599800FD289A18
:1044000001FD299A02FD2A9A03FD599A8BB1007F7A
:104410008F70082B0BB9C895C8950000589860910B
:1044200016036F5F60931603962F92959695969557
:1044300093709D15B1F067FD14C09FEF9093160324
:1044400040911703C4010F90DF91CF911F910F91FD
:10445000FF90EF90DF90CF90BF909F908F900C9443
:10446000CD200F90DF91CF911F910F91FF90EF9092
:10447000DF90CF90BF909F908F9008957F928F9202
:104480009F92AF92BF92CF92DF92EF92FF920F93E3
:104490001F93CF93DF93EC01F62E122F041B0F5FB7
:1044A000161B1F5F542F5770942E951AC02ED12CB7
:1044B00088E090E09C01251B3109C216D30664F404
:1044C0009C012C193D098FEF90E002C095958795CE
:1044D0002A95E2F7802E04C098E0892E851A8FEF86
:1044E000A82E01C0AA0C5A95EAF77A2C492D6F2DF7
:1044F000CE010E94CD20B12CA094B11678F4CE014B
:104500000E9409219FEF682FE91202C0672901C0AC
:104510006A21CE010E943421B394EFCF8918482D2F
:10452000490D842F90E09C01295F3F4F2C153D05DC
:1045300084F488E0980E492D6F2DCE010E94CD2085
:10454000B12CB11660F76E2DCE010E943421B394C8
:10455000F8CF401728F5C81AD90A8FEF90E00C2C35
:1045600001C0880F0A94EAF7D82ED09448E0490D8C
:104570006F2DCE010E94CD2000E0FD2CF09401179C
:1045800078F4CE010E9409219FEF682FE91202C042
:104590006D2901C06F21CE010E9434210F5FEFCF42
:1045A000DF91CF911F910F91FF90EF90DF90CF900F
:1045B000BF90AF909F908F907F900895EF92FF9261
:1045C0000F931F93CF93DF93EC013B9A3A9A509A43
:1045D0005898389A4098399A4198429843988FEF62
:1045E000809316038093170360931A0362E370E0CD
:1045F00080E090E00E945A2708E113E0F12CEE24BD
:10460000EA946F2DCE010E944F2084FD23C087FDC8
:1046100024C0F801E1928F014F2D6FE3CE010E947B
:10462000A2204F2D60ECCE010E94A220F394F2E074
:10463000FF12E7CFE12C0FE32FE740E060E0CE016F
:104640000E943E2240E060E0CE010E94CD2080E04A
:1046500090E005C082E090E002C081E090E0DF9150
:10466000CF911F910F91FF90EF90089580914B0390
:1046700090E020914C03821B9109089520914C03F6
:1046800080914B03281750F4E22FF0E0E35BFC4FDE
:10469000808190E02F5F20934C0308958FEF9FEF70
:1046A0000895E0914C0380914B03E81730F4F0E05B
:1046B000E35BFC4F808190E008958FEF9FEF0895BA
:1046C0000895CF92DF92EF92FF920F931F93CF93B3
:1046D000DF937C01CB018A0120912703222389F0FB
:1046E000EB016B01C40ED51ECC15DD0569F0699197
:1046F000D701ED91FC910190F081E02DC701099562
:10470000F3CF642F0E941C25C801DF91CF911F9128
:104710000F91FF90EF90DF90CF900895CF93DF93AC
:104720001F92CDB7DEB76983209127032223D1F0F2
:1047300020912803203240F021E030E0FC01338357
:10474000228380E090E015C080912903E82FF0E0FB
:10475000E65DFC4F998190838F5F8093290380935E
:10476000280305C061E0CE0101960E941C2581E06E
:1047700090E00F90DF91CF910895FC011382128297
:1047800048EE53E060E070E04483558366837783AE
:104790008AE092E091838083089510924C031092F6
:1047A0004B0310922903109228030C945F2481E09C
:1047B0008093270360934A031092290310922803E1
:1047C00008950F93062F21E0409128036AE273E0D9
:1047D00080914A030E94C524109229031092280355
:1047E000109227030F9108958F929F92AF92BF92DC
:1047F000CF92DF92EF92FF920F931F93CF93DF93AD
:10480000EC01F62ED42E48015901EE2019F10E9438
:10481000D7231E2D143008F013E01150B8F0E881B2
:10482000F98128E0129FB0011124A501940104C070
:1048300056954795379527956A95D2F7CA01B901DC
:104840000190F081E02DCE010995E7CF60E0CE0127
:104850000E94E1234D2D413208F040E22C2D6DE401
:1048600073E08F2D0E947D2410924C0380934B03A4
:10487000DF91CF911F910F91FF90EF90DF90CF903C
:10488000BF90AF909F908F900895CF92EF920F932B
:104890001F93C22EE12C00E010E098010E94F42347
:1048A0001F910F91EF90CF90089521E00C94452433
:1048B00061E00C94E1238BE193E00C94BD23109212
:1048C000DA0381E08093D8031092D70361E082E19C
:1048D0000E944A2861E083E10E944A28E9EBF0E067
:1048E00080818E7F808380818D7F808388E4809328
:1048F000B80085E48093BC000895413208F043C0BD
:104900009091DA039111FCCF91E09093DA03209318
:10491000D8032FEF20936D031092B203240F20933E
:10492000B1039093D9039091D903880F892B809379
:10493000D9038091D703813061F41092D70380911D
:10494000D9038093BB008091BC0083FDF8CF85EC38
:1049500001C085EE8093BC008091DA038130E1F3E1
:104960008091B203841710F44091B20323EB33E03B
:10497000FB01D9018A2F821B841718F48D91819332
:10498000F9CF842F089580E008950F93413208F005
:104990004AC09091DA039111FCCF92E09093DA0330
:1049A0000093D8039FEF90936D031092B20340934E
:1049B000B103FB0163EB73E0DB019A2F961B9417A5
:1049C00018F491919D93F9CF1092D9039091D90346
:1049D000880F892B8093D9038091D703813061F4AC
:1049E0001092D7038091D9038093BB008091BC00C3
:1049F00083FDF8CF85EC01C085EE8093BC002223B7
:104A000021F08091DA038230E1F380916D038F3FD2
:104A100061F080916D03803251F080916D0380339D
:104A200041F483E007C081E005C080E003C082E07C
:104A300001C084E00F910895613298F42091DA0367
:104A4000243089F460938F03FC0181E993E0DC0159
:104A50002A2F281B261718F421912D93F9CF80E0D7
:104A6000089581E0089582E0089585ED8093BC006B
:104A70008091BC0084FDFCCF1092DA03089585EC90
:104A80008093BC001092DA0308951F920F920FB624
:104A90000F9211242F933F934F935F936F937F93C4
:104AA0008F939F93AF93BF93EF93FF938091B90040
:104AB000887F803609F49EC078F5883209F45DC09D
:104AC00090F4803109F456C038F4882309F4F5C015
:104AD000883009F44FC0F5C0883109F44EC08032E7
:104AE00009F45FC0EEC0803409F46AC058F4803322
:104AF00009F457C0883309F0E4C080936D030E9425
:104B00003F25DFC0803509F44FC0883509F45DC00A
:104B1000883409F0D6C0D3C0883909F4C4C0A8F4D9
:104B2000883709F467C038F4883609F463C08037E1
:104B300009F460C0C6C0883809F4B5C0803909F4EA
:104B40005FC0803809F0BDC05BC0803B09F483C002
:104B500038F4803A09F466C0883A09F47CC0B1C0E0
:104B6000803C09F4A4C0883C09F4A1C0883B09F446
:104B700087C0A7C08091D90310C09091B2038091E3
:104B8000B103981770F5E091B20381E08E0F809326
:104B9000B203F0E0ED54FC4F80818093BB0085ECC4
:104BA00083C080936D038BC0E091B20381E08E0FD0
:104BB0008093B2038091BB00F0E0ED54FC4F808302
:104BC0009091B2038091B1036BC0E091B20381E098
:104BD0008E0F8093B2038091BB00F0E0ED54FC4F48
:104BE00080838091D80381116AC081E08093D703CC
:104BF00084EA5EC083E08093DA0310926E03CFCF25
:104C000080916E03803208F04EC0E0916E0381E027
:104C10008E0F80936E038091BB00F0E0E159FC4F52
:104C20008083BDCF0E943F2580916E03803230F497
:104C3000E0916E03F0E0E159FC4F108260916E0349
:104C400070E0E091D303F091D4038FE693E00995EF
:104C500010926E0336C084E08093DA0310929003C2
:104C600010928F03E091D503F091D60309958091BE
:104C70008F03811105C081E080938F03109291030F
:104C8000E091900381E08E0F80939003F0E0EF5667
:104C9000FC4F80818093BB009091900380918F03A3
:104CA000981708F47CCF85E88093BC000AC085EC97
:104CB0008093BC001092DA0304C010926D030E942E
:104CC0003525FF91EF91BF91AF919F918F917F918A
:104CD0006F915F914F913F912F910F900FBE0F9069
:104CE0001F90189508958230E8F4E82FF0E0EE0F59
:104CF000FF1FE65FFE4F71836083813041F080913A
:104D000069008C7F842B80936900E89A08958091D4
:104D10006900440F551F440F551F837F842B8093D8
:104D20006900E99A08951F920F920FB60F9211240D
:104D30002F933F934F935F936F937F938F939F93A3
:104D4000AF93BF93EF93FF93E0910A01F0910B01B2
:104D50000995FF91EF91BF91AF919F918F917F91B5
:104D60006F915F914F913F912F910F900FBE0F90D8
:104D70001F9018951F920F920FB60F9211242F9328
:104D80003F934F935F936F937F938F939F93AF93D3
:104D9000BF93EF93FF93E0910C01F0910D01099502
:104DA000FF91EF91BF91AF919F918F917F916F9103
:104DB0005F914F913F912F910F900FBE0F901F90D9
:104DC00018951F920F920FB60F9211242F933F93B5
:104DD0008F939F93AF93BF938091DC039091DD03FA
:104DE000A091DE03B091DF033091DB0323E0230FBA
:104DF0002D3720F40196A11DB11D05C026E8230F13
:104E00000296A11DB11D2093DB038093DC039093D8
:104E1000DD03A093DE03B093DF038091E003909164
:104E2000E103A091E203B091E3030196A11DB11D3E
:104E30008093E0039093E103A093E203B093E30334
:104E4000BF91AF919F918F913F912F910F900FBE86
:104E50000F901F9018952FB7F8946091DC03709114
:104E6000DD038091DE039091DF032FBF08953FB7EC
:104E7000F8948091E0039091E103A091E203B09156
:104E8000E30326B5A89B05C02F3F19F00196A11D8D
:104E9000B11D3FBF6627782F892F9A2F620F711D92
:104EA000811D911D42E0660F771F881F991F4A954B
:104EB000D1F70895CF92DF92EF92FF92CF93DF93D5
:104EC0006B017C010E943727EB01C114D104E1047E
:104ED000F10489F00E94AA2A0E9437276C1B7D0BDF
:104EE000683E734090F381E0C81AD108E108F108E8
:104EF000C851DC4FEACFDF91CF91FF90EF90DF9068
:104F0000CF9008958230910538F0880F991F880F4F
:104F1000991F05970197F1F70895789484B58260F9
:104F200084BD84B5816084BD85B5826085BD85B54D
:104F3000816085BDEEE6F0E0808181608083E1E8FC
:104F4000F0E0108280818260808380818160808334
:104F5000E0E8F0E0808181608083E1EBF0E0808137
:104F600084608083E0EBF0E0808181608083EAE709
:104F7000F0E0808184608083808182608083808192
:104F8000816080838081806880831092C100089551
:104F900080930E0108958E3008F08E508770209116
:104FA0000E0190E4299F90011124822B80937C00B4
:104FB00080917A00806480937A0080917A0086FDE7
:104FC000FCCF809178002091790090E0922B089599
:104FD000833081F028F4813099F08230A1F0089577
:104FE0008730A9F08830B9F08430D1F48091800006
:104FF0008F7D03C0809180008F778093800008951B
:1050000084B58F7702C084B58F7D84BD089580916B
:10501000B0008F7703C08091B0008F7D8093B00087
:105020000895CF93DF9390E0FC01E954F64F24916B
:10503000FC01E553F64F8491882349F190E0880FF5
:10504000991FFC01ED50F64FA591B4918751964FF1
:10505000FC01C591D4919FB7611108C0F8948C915F
:10506000209582238C93888182230AC0623051F478
:10507000F8948C91322F309583238C938881822BE6
:10508000888304C0F8948C91822B8C939FBFDF910E
:10509000CF9108950F931F93CF93DF931F92CDB7B6
:1050A000DEB7282F30E0F901ED55F64F8491F90174
:1050B000E954F64F1491F901E553F64F049100239A
:1050C000C9F0882321F069830E94E8276981E02FD5
:1050D000F0E0EE0FFF1FE751F64FA591B4919FB797
:1050E000F8948C91611103C01095812301C0812B2C
:1050F0008C939FBF0F90DF91CF911F910F910895D7
:10510000CF93DF93282F30E0F901ED55F64F8491CE
:10511000F901E954F64FD491F901E553F64FC491E2
:10512000CC2391F081110E94E827EC2FF0E0EE0FE4
:10513000FF1FE152F64FA591B4912C912D2381E0F0
:1051400090E021F480E002C080E090E0DF91CF9118
:105150000895CF92DF92EF92FF920F931F93CF9318
:10516000DF937C016A01EB0100E010E00C151D05E6
:1051700071F06991D701ED91FC910190F081E02DE2
:10518000C7010995892B19F00F5F1F4FEFCFC80199
:10519000DF91CF911F910F91FF90EF90DF90CF9013
:1051A00008956115710581F0DB010D900020E9F78C
:1051B000AD0141505109461B570BDC01ED91FC91AB
:1051C0000280F381E02D099480E090E008950C9432
:1051D000D128DC01ED91FC910190F081E02D099442
:1051E0008F929F92AF92BF92CF92DF92EF92FF92F7
:1051F0000F931F93CF93DF93CDB7DEB7A1970FB671
:10520000F894DEBF0FBECDBF7C01C42EE52FCB01CD
:10521000D22E19A221E02D1510F02AE0D22E8E01F7
:105220000F5D1F4F8D2C912CA12CB12C6C2D7E2F3E
:10523000A50194010E94E32D8C2DD29E801911248A
:10524000015011098A3014F4805D01C0895CF801B5
:105250008083211531054105510521F0C22EE32F30
:10526000CA01E4CFB801C7010E94D128A1960FB6A8
:10527000F894DEBF0FBECDBFDF91CF911F910F918C
:10528000FF90EF90DF90CF90BF90AF909F908F9066
:105290000895CF92DF92EF92FF920F931F93CF93D7
:1052A000DF93EC016A017B012115310579F4E88176
:1052B000F9810190F081E02D642FDF91CF911F9152
:1052C0000F91FF90EF90DF90CF9009942A30310535
:1052D000E9F477FF1AC06DE20E94E9288C014427A7
:1052E0005527BA014C195D096E097F092AE0CE01E4
:1052F0000E94F028800F911FDF91CF911F910F9195
:10530000FF90EF90DF90CF9008952AE0B701A601BB
:10531000CE01DF91CF911F910F91FF90EF90DF9021
:10532000CF900C94F0282115310541F4DC01ED916A
:10533000FC910190F081E02D642F09940C94F028E9
:105340009A01462F50E060E070E00C9493299A0196
:10535000AB0160E070E00C9493294F925F926F92E2
:105360007F928F929F92AF92BF92CF92DF92EF92F5
:10537000FF920F931F93CF93DF93EC016A017B01A0
:10538000B22E9A01AB01C701B6010E94D12D88232C
:1053900019F069E172E027C026013701E89477F837
:1053A0002FEF3FEF4FE75FE7C301B2010E94D12D1E
:1053B00081110DC02FEF3FEF4FE75FE7C301B2014F
:1053C0000E94102B18161CF46DE172E00CC02FEF38
:1053D0003FEF4FE75FE4C701B6010E94B52C1816F6
:1053E000ACF461E272E0CE01DF91CF911F910F9199
:1053F000FF90EF90DF90CF90BF90AF909F908F90F5
:105400007F906F905F904F900C94D1282FEF3FEFDB
:105410004FE75FECC701B6010E94102B87FDE1CF7B
:1054200020E030E0A901C701B6010E94102B87FFE0
:105430000AC06DE2CE010E94E9288C01F7FAF094CF
:10544000F7F8F09402C000E010E0A12C60E070E0FA
:1054500080E09FE3AB1441F020E030E040E251E413
:105460000E94142BA394F6CF9B01AC01C701B60197
:105470000E94AC2A6B017C010E94B22B2B013C01E3
:105480000E94DE2B9B01AC01C701B6010E94AB2A32
:105490006B017C012AE0B301A201CE010E94F02839
:1054A000080F191FBB2039F065E272E0CE010E949F
:1054B000D128080F191F7B2C772041F120E030E024
:1054C00040E251E4C701B6010E946E2D6B017C01E0
:1054D0000E94AD2B4B01AA2497FCA094BA2C2AE081
:1054E00030E0B501A401CE010E944929080F191F1F
:1054F000C501B4010E94E02B9B01AC01C701B601BC
:105500000E94AB2A6B017C017A94D6CFC801DF914F
:10551000CF911F910F91FF90EF90DF90CF90BF90B0
:10552000AF909F908F907F906F905F904F90089575
:105530000C94AD2908950E948D270E949A2A0E94FA
:105540003005C0E0D0E00E9465052097E1F30E949D
:105550000000F9CF08955058BB27AA270ED0CBC121
:10556000BCD130F0C1D120F031F49F3F11F41EF4D2
:105570008CC10EF4E095E7FB82C1E92FCDD180F319
:10558000BA17620773078407950718F071F49EF540
:10559000E5C10EF4E0950B2EBA2FA02D0B01B90139
:1055A00090010C01CA01A0011124FF27591B99F099
:1055B000593F50F4503E68F11A16F040A22F232FA5
:1055C000342F4427585FF3CF469537952795A795F5
:1055D000F0405395C9F77EF41F16BA0B620B730B9C
:1055E000840BBAF09150A1F0FF0FBB1F661F771F0D
:1055F000881FC2F70EC0BA0F621F731F841F48F4C2
:10560000879577956795B795F7959E3F08F0B3CF47
:105610009395880F08F09927EE0F97958795089531
:105620000AD108F481E008950CD065C15DD140F045
:1056300054D130F021F45F3F19F021C151118FC1D5
:1056400024C16AD198F39923C9F35523B1F3951B6B
:10565000550BBB27AA2762177307840738F09F5F93
:105660005F4F220F331F441FAA1FA9F333D00E2E02
:105670003AF0E0E830D091505040E695001CCAF76F
:1056800029D0FE2F27D0660F771F881FBB1F261734
:1056900037074807AB07B0E809F0BB0B802DBF0107
:1056A000FF2793585F4F2AF09E3F510568F0E7C0EF
:1056B00056C15F3FECF3983EDCF38695779567958E
:1056C000B795F7959F5FC9F7880F911D96958795B8
:1056D00097F90895E1E0660F771F881FBB1F6217D7
:1056E00073078407BA0720F0621B730B840BBA0B95
:1056F000EE1F88F7E095089519F40EF0C0C02EC192
:10570000C4C012D1C8F39638C0F707F80F92E894D6
:105710002BE33AEA48EB5FE7EFD10F920F920F923B
:105720004DB75EB70F92A7D1E8E3F1E0B1D04F914A
:105730005F91EF91FF91E595EE1FFF1F49F0FE5736
:10574000E0684427EE0F441FFA95E1F74195550BA9
:1057500019D10F9007FE0DC1089504D06894B111BE
:10576000FEC00895E1D088F09F5790F0B92F992797
:10577000B751A0F0D1F0660F771F881F991F1AF05C
:10578000BA95C9F712C0B13081F0E8D0B1E0089500
:10579000E5C0672F782F8827B85F39F0B93FCCF381
:1057A000869577956795B395D9F73EF49095809552
:1057B000709561957F4F8F4F9F4F0895E89409C072
:1057C00097FB3EF490958095709561957F4F8F4F34
:1057D0009F4F9923A9F0F92F96E9BB279395F6954A
:1057E000879577956795B795F111F8CFFAF4BB0FC8
:1057F00011F460FF1BC06F5F7F4F8F4F9F4F16C02C
:10580000882311F096E911C0772321F09EE8872FB5
:10581000762F05C0662371F096E8862F70E060E071
:105820002AF09A95660F771F881FDAF7880F9695EA
:10583000879597F90895990F0008550FAA0BE0E88E
:10584000FEEF16161706E807F907C0F01216130642
:10585000E407F50798F0621B730B840B950B39F482
:105860000A2661F0232B242B252B21F408950A26E8
:1058700009F4A140A6958FEF811D811D089597F928
:105880009F6780E870E060E008959FEF80EC0895E6
:10589000DF93CF931F930F93FF92EF92DF927B01E1
:1058A0008C01689405C0DA2EEF0124D1FE01E89442
:1058B000A5912591359145915591AEF3EF015DDEAE
:1058C000FE019701A801DA9479F7DF90EF90FF903D
:1058D0000F911F91CF91DF91089500240A9416161D
:1058E000170618060906089500240A9412161306CE
:1058F000140605060895092E0394000C11F488235C
:1059000052F0BB0F40F4BF2B11F460FF04C06F5F77
:105910007F4F8F4F9F4F089557FD9058440F551F4D
:1059200059F05F3F71F04795880F97FB991F61F021
:105930009F3F79F087950895121613061406551F98
:10594000F2CF4695F1DF08C0161617061806991F04
:10595000F1CF86957105610508940895E894BB27F9
:1059600066277727CB0197F9089565DF08F48FEF55
:1059700008959B01AC0160E070E080E89FE354CEA5
:105980007ECF13C1D1DFE8F39923D9F3940F511DD2
:10599000BBF39150504094F059F0882332F0660FD9
:1059A000771F881F91505040C1F79E3F510544F723
:1059B000880F911D9695879597F908955F3FACF0F4
:1059C000983E9CF0BB27869577956795B79508F428
:1059D000B1609395C1F7BB0F58F711F460FFE8CFA2
:1059E0006F5F7F4F8F4F9F4FE3CFB9CF0EF0DDC07A
:1059F0004CCF689444CF98DFC8F39923D1F3C6F312
:105A0000DF93CF931F930F93FF92C92FDD27882336
:105A10002AF02197660F771F881FDAF720E030E021
:105A200040E85FEB9FE3883920F0803E30F021961C
:105A30008F7792DDE0E6F1E003C08EDDEDE8F1E086
:105A400027DF8B01BE01EC01FB2E6F5771097595A5
:105A5000771F880B990BB4DE28E132E741E35FE35F
:105A600049D0AF2D9801AE01FF900F911F91CF91BA
:105A7000DF9183DD40CFFA01DC01AA0FBB1F9B0140
:105A8000AC01BF5728F422273327442750781FC082
:105A9000B75188F4AB2F0024469537952795011C04
:105AA000A395D2F3002069F0220F331F441FB39552
:105AB000DAF30DD050CD61307105A0E88A07B94600
:105AC00030F49B01AC0166277727882790783096C1
:105AD00021F0208331834283538308950BD00BCF71
