:100000000C94DF040C9476220C949D220C9407052A
:100010000C9407050C9407050C9407050C94070530
:100020000C9407050C9407050C9407050C94070520
:100030000C9407050C9407050C9407050C94070510
:100040000C94C4220C9407050C9407050C94070526
:100050000C9407050C9407050C9407050C940705F0
:100060000C9485070C940705E30A280BEE0A280B6D
:10007000F90A070B0B0B280BFD0A030B1C0B280BB3
:10008000140B180B0F118311A0113C115D125D129E
:1000900066118311A011BD11DB11F9111612341272
:1000A00015131F13391328132C1333134A1350132A
:1000B00060136013601360135913A2151D16771691
:1000C000A9161E181E181417621779179317AA1766
:1000D000C117D817FA1707634236B79BD8A71A3942
:1000E000685618AEBAAB558C1D3CB7CC5763BD6D86
:1000F000EDFD753EF6177231BF000000803F08002D
:100100000000BE922449123EABAAAA2ABECDCCCC96
:100110004C3E00000080BEABAAAAAA3E0000000030
:10012000BF000000803F0000000000084178D3BB02
:100130004387D1133D190E3CC3BD4282AD2B3E68AF
:10014000EC8276BED98FE1A93E4C80EFFFBE01C4A0
:10015000FF7F3F00000000000001020304050607C6
:1001600008090A141E28323C46505A64C800000090
:100170000005000A0014001E00280032003C004662
:100180000050005A0064006E00780082008C0096D7
:1001900000A000AA00B400BE00C800FA002C015E56
:1001A000019001C201F4015802BC0220038403E85B
:1001B00003B004780540060807D007C409B80BACA3
:1001C0000DA00F941188137C1570176419581B4CDF
:1001D0001D401F000000000FB810B811B812F51232
:1001E000B8129313F513D213B813A31393138513F3
:1001F0007A1371136914C414B814AD14A3149B14A6
:1002000093147515C415A81593158216EB16C4160C
:10021000A81693168217EB17C417A81793178218FE
:10022000EB18BC189D188619EB19D119BC19AB191C
:100230009D199119861AFB1AEB22080D0E206004F5
:100240000205060708090203030508020402040761
:100250000707070707070707070202070707080E30
:100260000908080807070908020708070B08090713
:100270000909070808090D0708080404040608030B
:100280000707060707050707020306020A0707070D
:100290000705060507070B06070505010507080002
:1002A00000000000000000FEFE18181E1E001E1EAA
:1002B000000000000090F89E90F89E1C00001C00BA
:1002C00000183C26FF66CC88040C183C180C041C53
:1002D000221CC0308E408000001804000C100C80DE
:1002E000CC7E72F2DE0C80000C1C1010101C0C1C5A
:1002F000101E1E0000F0FC061C7CC006FCF0C07C3A
:100300001C14140E14140000000000606060FCFC5B
:100310006060600000000C0C00000000005838C055
:10032000C0C0C0000000000000181800C038061847
:10033000040000F8FC0E060EFCF8040C1C181C0C43
:100340000400180CFEFE00000018181C1C181818D9
:100350001C86C6663E1C181C1C18181818888C06AB
:100360002626FEDC040C1C18180C04C0E0B88CFE19
:10037000FE80040404041C1C04707E3E3636F6C65F
:100380000C1C1818180C04F8FC6E6666EECC040CF5
:100390001818181C0C060606E6761E0600001C1C23
:1003A0000000009CFE666666FE9C0C1C1818181C5B
:1003B0000C3C7E666666FCF80C1C18181C0C0418B5
:1003C000181818181858386060F0F098980C000049
:1003D000000004040CD8D8D8D8D8D8D80000000021
:1003E0000000000C9898F0F060600C04040000001D
:1003F00000080C06C6E6763C18000000181800003D
:1004000000E03008C4F63A1A1AF2FA7E0408F00C3A
:1004100030604C9C98988C9C9C90484C2000C0F874
:10042000BE86BEF8C000181C04040404041C18FE98
:10043000FE66666666FEDC1C1C181818181C0CF894
:10044000FC0E06060E9C08040C1C18181C0C04FE5E
:10045000FE0606060EFCF81C1C1818181C0C04FEE0
:10046000FE66666666661C1C1818181818FEFE667E
:10047000666666061C1C0000000000F8FC0E0606FE
:10048000C6CEDCC8040C1C181818180C04FEFE603C
:10049000606060FEFE1C1C000000001C1CFEFE1CB8
:1004A0001C8080000000FEFE0C1C1818181C0CFE9E
:1004B000FE603078EC86021C1C000000041C18FE54
:1004C000FE00000000001C1C1818181818FEFE0E74
:1004D0007CE000E07C0EFEFE1C1C00000C1C0C00EE
:1004E000001C1CFEFE1C78E080FEFE1C1C000004AC
:1004F0000C1C1CF8FC0E0606060EFCF8040C1C185E
:1005000018181C0C04FEFE6666667E3C1C1C00006F
:10051000000000F8FC0E0686060EFCF8040C1C1801
:10052000181C0C1C24FEFE6666E6E6BE1C001C1CA5
:100530000000000C1C18103C7E666666EECC0C1C9D
:100540001818181C0C060606FEFE0606060000001B
:100550001C1C000000FEFE00000000FEFE040C1C3F
:1005600018181C0C04021EFCE000E0FC1E02000037
:10057000001C1C1C00000006FEF800F0FE0EFEF041
:1005800000F8FE0600001C1C1C0000001C1C1C00C7
:1005900000060EF8F0F80E06181C0400041C1806DD
:1005A0000E38F0F0380E060000001C1C000000069B
:1005B0000686E6761E0E06181C1C1818181818FE5B
:1005C000FE0606FCFCC0C00638C000000004180689
:1005D00006FEFEC0C0FCFC20380E0E3820000000D5
:1005E000000000000000000000000080808080808B
:1005F0008080800206040000001098D858F8F000AF
:100600000C1C18180C1C10FEFE301838F0E01C1CD6
:100610000C181C0C04E0F018183830040C18181CC6
:100620000CE0F0381830FEFE040C1C180C1C1CE00A
:10063000F0D8D8D8F0E0040C181818180818FCFEE8
:100640001A1A001C1C0000E0F0381830F8F864ECAE
:10065000DCD8CCFC7CFEFE301818F8F01C1C000026
:10066000001C1CFAFA1C1C00FAFAC0FC7CFEFEE01E
:10067000F098081C1C00041C18FEFE1C1CF8F81046
:1006800018F8F01818F8F01C1C00001C1C00001CC6
:100690001CF8F8301818F8F01C1C0000001C1CE0B6
:1006A000F0381838F0E0040C1C181C0C04F8F83072
:1006B0001838F0E0FCFC0C181C0C04E0F038183082
:1006C000F8F8040C1C180CFCFCF8F83018181C1C6A
:1006D00000000070F8D8D8D890081818181C0C180A
:1006E000FCFE1818000C1C1818F8F8000000F8F8A8
:1006F0000C1C18180C1C1C38F8C000C0F83800007E
:100700001C1C1C000018F8E000F038F000E0F8189D
:1007100000001C1C0C000C1C1C00001838E0E03809
:1007200018181C04041C1818F8E000E0F8180084DD
:10073000FCF83C04001898D878381C1C181818804D
:10074000FC7E0606007CFCC0C0FEFC06067EFC802B
:10075000C0C0FC7C00603030706060300000000081
:10076000000000FE020202020202FE1C1010101025
:1007700010101C00000507206100000000000000B0
:100780005F00000007000700147F147F14242A7FF5
:100790002A122313086462364955225000050300CB
:1007A00000001C2241000041221C00082A1C2A08CB
:1007B00008083E0808005030000008080808080033
:1007C0006060000020100804023E5149453E00428E
:1007D0007F400042615149462141454B3118141276
:1007E0007F1027454545393C4A4949300171090583
:1007F000033649494936064949291E003636000064
:100800000056360000000814224114141414144138
:10081000221408000201510906324979413E7E1135
:1008200011117E7F494949363E414141227F414174
:10083000221C7F494949417F090901013E4141513B
:10084000327F0808087F00417F41002040413F017E
:100850007F081422417F404040407F0204027F7F96
:100860000408107F3E4141413E7F090909063E418F
:1008700051215E7F09192946464949493101017FC5
:1008800001013F4040403F1F2040201F7F20182093
:100890007F631408146303047804036151494543DA
:1008A00000007F4141020408102041417F00000404
:1008B0000201020440404040400001020400205474
:1008C0005454787F4844443838444444203844449D
:1008D000487F3854545418087E09010208145454AF
:1008E0003C7F0804047800447D40002040443D00E3
:1008F000007F10284400417F40007C041804787C6D
:100900000804047838444444387C14141408081447
:1009100014187C7C080404084854545420043F44B0
:1009200040203C4040207C1C2040201C3C4030406B
:100930003C44281028440C5050503C4464544C44CF
:10094000000836410000007F000000413608000822
:10095000082A1C08081C2A080800060909060000C5
:10096000000800020100000304070000000000006E
:100970000000010204081020408001020408102039
:100980000102040810200404040404040404020204
:10099000020202020303030303030000000023001A
:1009A0002600290000000000250028002B00000080
:1009B0000000240027002A0070059B06611F1124F7
:1009C0001FBECFEFD8E0DEBFCDBF11E0A0E0B1E0A9
:1009D000EEE2F4E502C005900D92AA3DB107D9F709
:1009E00023E0AAEDB1E001C01D92A733B207E1F701
:1009F00019E0CEEBD9E004C02297FE010E94FB294A
:100A0000C83BD107C9F70E947B260C94152A0C9489
:100A100000008AED91E00C9462128AED91E00E9450
:100A200009098AED91E00E9419098AED91E00E947E
:100A30009D098AED91E00E9482138AED91E00E9467
:100A400064098AED91E00E942B0B8AED91E00E94EF
:100A5000E50B8AED91E00E94210C8AED91E00E9465
:100A6000570C8AED91E00E948E188AED91E00E9469
:100A700064158AED91E00E94A70C8AED91E00E9436
:100A80002B108AED91E00E94830C43E050E069E076
:100A900075E081E00C9456228AED91E00E948E1858
:100AA0008AED91E00E9464158AED91E00E942B107E
:100AB0008AED91E00E94840F8AED91E00E94681017
:100AC0008AED91E00E94FF108AED91E00E94871567
:100AD0008AED91E00E9492138AED91E00C94CD0A88
:100AE0008AED91E00C9406098091880290E02091B3
:100AF0008902821B910908952091890280918802C0
:100B0000281750F4E22FF0E0E657FD4F808190E087
:100B10002F5F2093890208958FEF9FEF0895E09152
:100B2000890280918802E81730F4F0E0E657FD4F23
:100B3000808190E008958FEF9FEF08950895CF9200
:100B4000DF92EF92FF920F931F93CF93DF937C017D
:100B5000CB018A0120916402222389F0EB016B0111
:100B6000C40ED51ECC15DD0569F06991D701ED9154
:100B7000FC910190F081E02DC7010995F3CF642F1E
:100B80000E945C07C801DF91CF911F910F91FF90E8
:100B9000EF90DF90CF900895CF93DF931F92CDB762
:100BA000DEB76983209164022223D1F0209165028F
:100BB000203240F021E030E0FC013383228380E0EA
:100BC00090E015C080916602E82FF0E0E959FD4FF2
:100BD000998190838F5F809366028093650205C040
:100BE00061E0CE0101960E945C0781E090E00F90E9
:100BF000DF91CF910895FC011382128248EE53E0F9
:100C000060E070E0448355836683778383E191E0FD
:100C10009183808308951092890210928802109225
:100C20006602109265020C949F0681E08093640234
:100C300060938702109266021092650208950C94E8
:100C400015060F93062F21E04091650267E672E0DA
:100C5000809187020E940507109266021092650239
:100C6000109264020F9108958F929F92AF92BF925B
:100C7000CF92DF92EF92FF920F931F93CF93DF9368
:100C8000EC01F62ED42E48015901EE2019F10E94F4
:100C900015061E2D143008F013E01150B8F0E8814D
:100CA000F98128E0129FB0011124A501940104C02C
:100CB00056954795379527956A95D2F7CA01B90198
:100CC0000190F081E02DCE010995E7CF60E0CE01E3
:100CD0000E9421064D2D413208F040E22C2D6AE899
:100CE00072E08F2D0E94BD061092890280938802C7
:100CF000DF91CF911F910F91FF90EF90DF90CF90F8
:100D0000BF90AF909F908F900895CF92EF920F93E6
:100D10001F93C22EE12C00E010E098010E943406DF
:100D20001F910F91EF90CF90089521E00C948506CC
:100D300061E00C94210688E592E00C94FB0510928A
:100D4000170381E0809315031092140361E082E1A0
:100D50000E942A2461E083E10E942A24E9EBF0E06A
:100D600080818E7F808380818D7F808388E48093E3
:100D7000B80085E48093BC000895413208F043C078
:100D8000909117039111FCCF91E09093170320935A
:100D900015032FEF2093AA021092EF02240F209345
:100DA000EE029093160390911603880F892B80937F
:100DB000160380911403813061F410921403809122
:100DC00016038093BB008091BC0083FDF8CF85ECB7
:100DD00001C085EE8093BC00809117038130E1F360
:100DE0008091EF02841710F44091EF0220EF32E07F
:100DF000FB01D9018A2F821B841718F48D918193EE
:100E0000F9CF842F089580E008950F93413208F0C0
:100E10004AC0909117039111FCCF92E09093170371
:100E2000009315039FEF9093AA021092EF02409354
:100E3000EE02FB0160EF72E0DB019A2F961B941724
:100E400018F491919D93F9CF109216039091160387
:100E5000880F892B8093160380911403813061F4ED
:100E600010921403809116038093BB008091BC0004
:100E700083FDF8CF85EC01C085EE8093BC00222372
:100E800021F0809117038230E1F38091AA028F3F15
:100E900061F08091AA02803251F08091AA028033E1
:100EA00041F483E007C081E005C080E003C082E038
:100EB00001C084E00F910895613298F420911703E6
:100EC000243089F46093CC02FC018EEC92E0DC01CA
:100ED0002A2F281B261718F421912D93F9CF80E093
:100EE000089581E0089582E0089585ED8093BC0027
:100EF0008091BC0084FDFCCF10921703089585EC0F
:100F00008093BC001092170308951F920F920FB6A2
:100F10000F9211242F933F934F935F936F937F937F
:100F20008F939F93AF93BF93EF93FF938091B900FB
:100F3000887F803609F49EC078F5883209F45DC058
:100F400090F4803109F456C038F4882309F4F5C0D0
:100F5000883009F44FC0F5C0883109F44EC08032A2
:100F600009F45FC0EEC0803409F46AC058F48033DD
:100F700009F457C0883309F0E4C08093AA020E94A4
:100F80007F07DFC0803509F44FC0883509F45DC0A4
:100F9000883409F0D6C0D3C0883909F4C4C0A8F495
:100FA000883709F467C038F4883609F463C080379D
:100FB00009F460C0C6C0883809F4B5C0803909F4A6
:100FC0005FC0803809F0BDC05BC0803B09F483C0BE
:100FD00038F4803A09F466C0883A09F47CC0B1C09C
:100FE000803C09F4A4C0883C09F4A1C0883B09F402
:100FF00087C0A7C08091160310C09091EF02809126
:10100000EE02981770F5E091EF0281E08E0F809369
:10101000EF02F0E0E051FD4F80818093BB0085EC52
:1010200083C08093AA028BC0E091EF0281E08E0F13
:101030008093EF028091BB00F0E0E051FD4F808390
:101040009091EF028091EE026BC0E091EF0281E09F
:101050008E0F8093EF028091BB00F0E0E051FD4FD6
:1010600080838091150381116AC081E0809314030D
:1010700084EA5EC083E0809317031092AB02CFCF67
:101080008091AB02803208F04EC0E091AB0281E06B
:101090008E0F8093AB028091BB00F0E0E455FD4FD2
:1010A0008083BDCF0E947F078091AB02803230F4F5
:1010B000E091AB02F0E0E455FD4F10826091AB028D
:1010C00070E0E0911003F09111038CEA92E0099531
:1010D0001092AB0236C084E0809317031092CD02C9
:1010E0001092CC02E0911203F091130309958091C4
:1010F000CC02811105C081E08093CC021092CE0217
:10110000E091CD0281E08E0F8093CD02F0E0E253BA
:10111000FD4F80818093BB009091CD028091CC02E5
:10112000981708F47CCF85E88093BC000AC085EC52
:101130008093BC001092170304C01092AA020E9470
:101140007507FF91EF91BF91AF919F918F917F9123
:101150006F915F914F913F912F910F900FBE0F9024
:101160001F9018950C94FF290C94072ABC0180E06D
:1011700090E00E94BE2720E032E848EC56E40E944E
:10118000F4260E94DB2820E030E449E755E40E9481
:10119000F42628EC3EEC4BE55BE30E948C269B0199
:1011A000AC0160E070E080E89FE30E94F42623E356
:1011B00033E948E853E40E948B26089523E333E99A
:1011C00048E853E40E948C269B01AC0160E070E08B
:1011D00080E89FE30E94F4269B01AC0168EC7EEC62
:1011E0008BE59BE30E948B2620E030E449E755EC39
:1011F0000E944E290E94612720E032E848EC56E424
:101200000E944E290E949227CB01089546960C9485
:10121000191F60E082E00E94F12360E085E10E94F6
:10122000F12360E08BE00E94F12360E084E10C9404
:10123000F123CF93DF93EC0161E082E00E942A2446
:1012400060E070E0CE0146960E94271F88E592E09C
:101250000E940B06FE01E25BFF4F10821182128298
:10126000138218821DA23496108211821282138278
:10127000B4961082118212821382B097108211826A
:101280001282138234961082118212821382349653
:10129000108211821282138219A618A61BA61AA602
:1012A0001CA61DA61DAE1EA61FA21FA67697118204
:1012B000108218AA1AAA1CAA1DAA81E08EAB8FABB5
:1012C00089ABDF91CF9108951F93CF93DF93EC010A
:1012D000669629E23FE14FEF63E777E0CE010E9497
:1012E000101F40E060E0CE010E942C1F6FE171E012
:1012F000CE010E94C72448E060E0CE010E942C1F6E
:101300006FE271E0CE010E94C72415E040E160E089
:10131000CE010E942C1F4AE050E0612FCE010E94B6
:10132000802568EE73E080E090E00E943D2311503C
:1013300069F7DF91CF911F910895BF92CF92DF920D
:10134000EF92FF920F931F93CF93DF93EC0184E60C
:1013500090E00E94B2089E012E5B3F4F79018E0102
:101360000A5B1F4FFE01E05CFF4F6F01883609F0FA
:1013700062C080E090E00E94B208B82E81E090E068
:101380000E94B2082B2D30E0322F2227282BF701A4
:101390003183208382E090E00E94B208B82E83E07F
:1013A00090E00E94B2082B2D30E0322F2227282B0C
:1013B000F8013183208384E090E00E94B2088AAF74
:1013C00088E090E00E94B208F601808389E090E016
:1013D0000E94B2088FAF86E090E00E94B208D82E3B
:1013E00087E090E00E94B2082D2D30E0322F2227B6
:1013F000282B3E832D8385E090E00E94B2088F87E2
:101400008CE090E00E94B208888B8DE090E00E9412
:10141000B208898B8AE090E00E94B208D82E8BE057
:1014200090E00E94B2082D2D30E0322F2227282B89
:101430003A87298768C068E684E690E00E94B4088D
:1014400060E880E090E00E94B40864EA81E090E007
:101450000E94B40864E282E090E00E94B40868E66A
:1014600083E090E00E94B40861E084E090E00E9494
:10147000B40860E086E090E00E94B40860E087E095
:1014800090E00E94B40864E188E090E00E94B40813
:1014900062E289E090E00E94B40862E385E090E0B7
:1014A0000E94B4086AE08CE090E00E94B4086EE10B
:1014B0008DE090E00E94B40862E08AE090E00E9433
:1014C000B40861E38BE090E00E94B40884EA90E8FD
:1014D000F7019183808381E694E2F8019183808310
:1014E00081E08AAF84E1F601808382E28FAF8AE0F7
:1014F000888B8EE1898B1E821D8281E392E09A8720
:10150000898782E38F87F70180819181FE01EC5BFF
:10151000FF4F918380830E94B608FE01E659FF4F7A
:10152000608371838283938338966083718382831F
:101530009383F801808191810E94B608FE01E259EF
:10154000FF4F6083718382839383EAADF0E0E85AB2
:10155000FE4F659174916BAFC658DF4F70E080E02D
:1015600090E00E94BE2720E030E040E751E40E9476
:101570004E2920E030E543EC57E40E94F4266883CE
:1015800079838A839B83DF91CF911F910F91FF9085
:10159000EF90DF90CF90BF900895CF93DF93EC0151
:1015A0008AA9882309F454C01AAAFE01EF5BFF4FF1
:1015B000408150E04E30510508F04AC0FA01EC5C21
:1015C000FF4F0C94F929CE5BDF4F698180E090E0FA
:1015D0000E94B408688181E090E036C0CA5BDF4FAA
:1015E000698182E090E00E94B408688183E090E025
:1015F0002BC06AAD84E090E027C0C05CDF4F6881FB
:1016000088E090E021C06FAD89E090E01DC06F855B
:1016100085E090E019C06E8186E090E00E94B408F9
:101620006D8187E090E010C068898CE090E00CC08C
:1016300069898DE090E008C06A858AE090E00E94A8
:10164000B40869858BE090E0DF91CF910C94B408E9
:10165000DF91CF910895CF93DF93EC01669660E020
:10166000CE010E943E1F29E23FE14FEF63E777E0A2
:10167000CE010E94101F40E066E0CE010E942C1FA8
:101680006FE371E0CE010E94C7244CE066E0CE011A
:101690000E942C1F67E471E0CE010E94C72448E13C
:1016A00066E0CE010E942C1F6FE471E0CE010E9423
:1016B000C72448E366E0CE010E942C1F6FE571E06D
:1016C000CE01DF91CF910C94C724CF93DF93EC012F
:1016D000669660E0CE010E943E1F29E23FE14FEF97
:1016E00063E777E0CE010E94101F40E066E0CE0184
:1016F0000E942C1F65E671E0CE010E94C72440E0E5
:1017000068E4CE010E942C1F69E671E0CE010E94C0
:10171000C7244CE066E0CE010E942C1F6DE671E00C
:10172000CE010E94C7244CE068E4CE010E942C1F29
:1017300063E771E0CE010E94C72448E166E0CE0174
:101740000E942C1F67E771E0CE010E94C72448E188
:101750006AE2CE010E942C1F6AE771E0CE010E946E
:10176000C72448E16AE5CE010E942C1F6DE771E0B5
:10177000CE010E94C72444E266E0CE010E942C1FE5
:1017800061E871E0CE010E94C72444E262E4CE0128
:101790000E942C1F65E871E0CE010E94C72440E33F
:1017A00066E0CE010E942C1F6AE871E0CE010E9423
:1017B000C72440E368E4CE010E942C1F60E971E079
:1017C000CE01DF91CF910C94C7240F931F93CF9339
:1017D000DF938C01EC01669629E23FE14FEF63E76E
:1017E00077E0CE010E94101FF80180A940E0882315
:1017F00011F068E101C060E3CE010E942C1F065980
:101800001F4F24E533EE4FE151E4F801608171810F
:10181000828193810E94F02687FF05C068EA71E00B
:10182000CE010E94C724F8014081518162817381F9
:1018300022E030E0CE01DF91CF911F910F910C9407
:1018400078260F931F93CF93DF938C01EC0166965C
:1018500029E23FE14FEF63E777E0CE010E94101FDE
:101860004CE060E3CE010E942C1F02591F4F23E27F
:101870003BED4FE151E4F8016081718182819381F8
:101880000E94F02687FF05C068EA71E0CE010E9441
:10189000C724F801408151816281738122E030E0E8
:1018A000CE01DF91CF911F910F910C9478260F9369
:1018B0001F93CF93DF938C01EC01669629E23FE101
:1018C0004FEF63E777E0CE010E94101F48E160E32D
:1018D000CE010E942C1FF80163AD70E080E090E023
:1018E0000E94BE2720E030E048EC52E40E94F4263B
:1018F000AB01BC0122E030E0CE01DF91CF911F911E
:101900000F910C9478260F931F93CF93DF938C0144
:10191000EC01669629E23FE14FEF63E777E0CE0105
:101920000E94101F48E364E5CE010E942C1FF801BD
:1019300085A1882319F066E971E002C06BE971E0C6
:10194000CE01DF91CF911F910F910C94C7240F937B
:101950001F93CF93DF938C01EC01669629E23FE160
:101960004FEF63E777E0CE010E94101F48E364E287
:10197000CE010E942C1FF8018081811103C06BEA07
:1019800071E002C060EA71E0CE01DF91CF911F915A
:101990000F910C94C7240F931F93CF93DF938C0167
:1019A000EC01669629E23FE14FEF63E777E0CE0175
:1019B0000E94101F44E268E4CE010E942C1FF8012F
:1019C00085A58823D1F0EE58FF4FD801AA58BF4F04
:1019D0002D913D914D915C916081718182819381C6
:1019E0000E948C26AB01BC0122E030E0CE01DF91E9
:1019F000CF911F910F910C94782664EA71E0CE018B
:101A0000DF91CF911F910F910C94C7240F931F93D7
:101A1000CF93DF938C01EC01669648E162E1CE0141
:101A20000E942C1F29E23FE14FEF63E777E0CE01F0
:101A30000E94101F005C1F4FF80180818A3028F43B
:101A400068EA71E0CE010E94C7244AE050E0F80144
:101A50006081CE01DF91CF911F910F910C94802571
:101A6000CF92DF92EF92FF920F931F93CF93DF936A
:101A7000EC01EFADF0E0EE0FFF1FE359FE4F659173
:101A8000749180E090E00E94BE2720E030E048ECB6
:101A900052E40E94F4266B017C018E010A5E1F4F06
:101AA00048E166E3C8010E942C1F29E23FE14FEFA5
:101AB00063E777E0C8010E94101F8FAD833090F478
:101AC000813069F46AEA71E0C801DF91CF911F911A
:101AD0000F91FF90EF90DF90CF900C94C72422E0FD
:101AE00030E011C0813240F468EA71E0C8010E9420
:101AF000C72421E030E007C067EA71E0C8010E9416
:101B0000C72420E030E0B701A601C801DF91CF91E2
:101B10001F910F91FF90EF90DF90CF900C9478265B
:101B20000F931F93CF93DF938C01EC01669629E20C
:101B30003FE14FEF63E777E0CE010E94101F44E2E0
:101B40006AE5CE010E942C1FF801658176814AE08A
:101B500050E0CE01DF91CF911F910F910C9487251A
:101B6000CF92DF92EF92FF92CF93DF93EC016F85DC
:101B700070E080E090E00E94BE272DEC3CEC4CE44D
:101B80005DE30E944E2920E030E040E05FE30E94E8
:101B90008C266B017C01669629E23FE14FEF63E7FB
:101BA00077E0CE010E94101F4CE064E2CE010E945B
:101BB0002C1F22E030E0B701A601CE01DF91CF91CA
:101BC000FF90EF90DF90CF900C947826CF92DF9229
:101BD000EF92FF92CF93DF936A017B01EC0166964F
:101BE00029E23FE14FEF63E777E0CE010E94101F4B
:101BF0004CE06AE5CE010E942C1F20E030E0A901F4
:101C0000C701B6010E94952818165CF42FE832EC43
:101C100045E75CE3C701B6010E94F02618165CF0A8
:101C200014C02FE832EC45E75CEBC701B6010E9417
:101C3000952887FF0AC020E030E0A901C701B6015E
:101C40000E94F02687FF04C008C0C12CD12C760169
:101C500068EA71E0CE010E94C72422E030E0B701BB
:101C6000A601CE01DF91CF91FF90EF90DF90CF9052
:101C70000C947826CF92DF92EF92FF92CF93DF936E
:101C80006A017B01EC01669629E23FE14FEF63E7D1
:101C900077E0CE010E94101F40E366E6CE010E946D
:101CA0002C1F20E030E048EC52E4C701B6010E944E
:101CB000F02687FF05C068EA71E0CE010E94C724C4
:101CC00020E030E0B701A601CE01DF91CF91FF9077
:101CD000EF90DF90CF900C9478260F931F93CF93C3
:101CE000DF938C01EC01669629E23FE14FEF63E759
:101CF00077E0CE010E94101F48E16CE6CE010E9401
:101D00002C1FF80180898A3028F468EA71E0CE013E
:101D10000E94C7244AE050E0F8016089CE01DF91BB
:101D2000CF911F910F910C9480250F931F93CF9308
:101D3000DF938C01EC01669629E23FE14FEF63E708
:101D400077E0CE010E94101F44E268E1CE010E94BC
:101D50002C1FF80181898A3028F468EA71E0CE01ED
:101D60000E94C7244AE050E0F8016189CE01DF916A
:101D7000CF911F910F910C948025CF92DF92EF921B
:101D8000FF92CF93DF937C01EC01669629E23FE15D
:101D90004FEF63E777E0CE010E94101F40E364E25B
:101DA000CE010E942C1FF7016185728580E090E0D2
:101DB0000E94BE2720E030E040E85EE30E944E290A
:101DC00020E030E044EA51E40E948B266B017C0164
:101DD00020E030E047EC52E40E94F02687FF05C087
:101DE00068EA71E0CE010E94C72420E030E0B7012C
:101DF000A601CE01DF91CF91FF90EF90DF90CF90C1
:101E00000C9478268F929F92AF92BF92CF92DF92DE
:101E1000EF92FF920F931F93CF93DF9300D0CDB734
:101E2000DEB78C01962E49835A830E940E236B01E4
:101E30007C01F80181A949815A8181115A0181E00F
:101E40008925F80181AB992009F44FC04801F6E1DA
:101E50008F0E911C29E23FE14FEF63E777E0C40169
:101E60000E94101F40E06EE4C4010E942C1FCA189B
:101E7000DB0888EEC81683E0D80620F1F801EE589A
:101E8000FF4F408151816281738122E030E0C401C3
:101E90000E947826C60168EE73E00E94C3294AE0DA
:101EA00050E0C4010F900F90DF91CF911F910F91DF
:101EB000FF90EF90DF90CF90BF90AF909F908F906A
:101EC0000C9487256FEA71E0C4010F900F90DF91A9
:101ED000CF911F910F91FF90EF90DF90CF90BF9027
:101EE000AF909F908F900C94C7240F900F90DF912C
:101EF000CF911F910F91FF90EF90DF90CF90BF9007
:101F0000AF909F908F900895CF93DF93EC0188A5B9
:101F1000ABA5882351F02A2F30E08AA590E028173E
:101F20003907ACF481E08DA712C01DA6FE01EA5866
:101F3000FF4F10821182128213823C97408151819F
:101F40006281738138964083518362837383A111C8
:101F50001DA68DA59CA5981761F0882329F083E024
:101F60008CAF81E08EA702C01CAE1DAECE010E94D8
:101F7000CB0C8DA58CA789A588A78BA58AA7DF91F7
:101F8000CF910895CF92DF92EF92FF92CF93DF939C
:101F9000EC01CB01BA012881222309F455C02DA1FF
:101FA000FE01222349F1E259FF4F20813181428114
:101FB00053810E948B266B017C0120E030E0A90157
:101FC0000E94952818165CF42DEC3CEC4CEC5DE37B
:101FD000C701B6010E94F02687FF36C00AC02DEC6B
:101FE0003CEC4CEC5DEBC701B6010E94952818163D
:101FF0005CF581E08CAB28C0E659FF4F2081318130
:10200000428153810E948B266B017C0120E030E0ED
:10201000A9010E94952818165CF42DEC3CEC4CECC0
:102020005DE3C701B6010E94F02687FF0DC00AC01C
:102030002DEC3CEC4CEC5DEBC701B6010E94952801
:10204000181614F481E08DABDF91CF91FF90EF90E3
:10205000DF90CF900895CF92DF92EF92FF920F938F
:102060001F93CF93DF93EC018BE00E9460248E01DD
:102070000E591F4F892BF1F40E940E236B017C0136
:10208000F80180819181A281B381A7019601281B6B
:10209000390B4A0B5B0BDA01C901853F9140A10561
:1020A000B10540F08DA191E089278DA38BA7CE01CA
:1020B0000E94830CF801C082D182E282F382DF9118
:1020C000CF911F910F91FF90EF90DF90CF900895E7
:1020D000CF92DF92EF92FF920F931F93CF93DF93F4
:1020E000EC0185E10E94AB238E010A591F4F803F0E
:1020F00091050CF076C00E940E236B017C01F80163
:1021000080819181A281B381A7019601281B390B9F
:102110004A0B5B0BDA01C901893E9340A105B10569
:1021200018F08CAD8F5F8CAF8CAD8350823008F48B
:102130001CAE8CAD8DAF2CEE31E540EE50E4FE01CF
:10214000E659FF4F60817181828193810E94F02660
:1021500087FF25C08DA1882311F188A981111FC097
:1021600085E08CAF81E088ABCE010E94650BCE018B
:102170000E94E50BCE010E94060DCE010E94300D9B
:10218000CE010E94B00DCE010E94900DCE010E94A2
:102190006D0ECE010E94950ECE010E94BD0E8CAD3B
:1021A0008E3029F48DA1882311F086E08CAF8CADA0
:1021B0008E30B9F48DA1811114C01CAE18AACE01C5
:1021C0000E942B0BCE010E94E50BCE010E94210C38
:1021D000CE010E94570CCE010E94A70CCE010E9496
:1021E000830CF801C082D182E282F382DF91CF9129
:1021F0001F910F91FF90EF90DF90CF9008950F9374
:102200001F93CF93DF93EC014CAD50E04E3051055E
:1022100008F053C1FA01EE5BFF4F0C94F9298C01D1
:102220000A5E1F4F29E23FE14FEF63E777E0C80105
:102230000E94101F8EA5882321F01EA644E262E4AE
:1022400002C048E160E0C8010E942C1F68EA71E00A
:10225000C8010E94C72429E23FE140E063E777E03C
:10226000C8010E94101F40E060E0C8010E942C1FBE
:1022700068EA71E0C8011BC18C010A5E1F4F29E2A8
:102280003FE14FEF63E777E0C8010E94101F8DAD7B
:10229000813039F020F0823049F448E103C040E059
:1022A00001C04CE060E0C8010E942C1F68EA71E0A8
:1022B000C8010E94C72429E23FE140E063E777E0DC
:1022C000C8010E94101F44E262E4CFCF669629E263
:1022D0003FE14FEF63E777E0CE010E94101F40E33C
:1022E00060E0CE010E942C1F68EA71E0CE010E94DE
:1022F000C72429E23FE140E063E777E0CE010E9496
:10230000101F40E0CDC0669629E23FE14FEF63E742
:1023100077E0CE010E94101F40E060E0CE010E94F5
:102320002C1F68EA71E0CE010E94C72429E23FE138
:1023300040E063E777E0CE010E94101F4CE0B0C0A0
:10234000669629E23FE14FEF63E777E0CE010E9416
:10235000101F4CE060E0CE010E942C1F68EA71E083
:10236000CE010E94C72429E23FE140E063E777E025
:10237000CE010E94101F48E193C0669629E23FE11A
:102380004FEF63E777E0CE010E94101F48E160E065
:10239000CE010E942C1F68EA71E0CE010E94C72482
:1023A00029E23FE140E063E777E0CE010E94101FA1
:1023B00048E164E276C0669629E23FE14FEF63E7C9
:1023C00077E0CE010E94101F48E164E2CE010E9436
:1023D0002C1F68EA71E0CE010E94C72429E23FE188
:1023E00040E063E777E0CE010E94101F48E164E51A
:1023F00058C0669629E23FE14FEF63E777E0CE01F0
:102400000E94101F48E164E5CE010E942C1F68EA7B
:1024100071E0CE010E94C72429E23FE140E063E77A
:1024200077E0CE010E94101F44E23AC0669629E28E
:102430003FE14FEF63E777E0CE010E94101F44E2D7
:1024400060E0CE010E942C1F68EA71E0CE010E947C
:10245000C72429E23FE140E063E777E0CE010E9434
:10246000101F44E26CE31DC0669629E23FE14FEF86
:1024700063E777E0CE010E94101F44E26CE3CE01D7
:102480000E942C1F68EA71E0CE010E94C72429E255
:102490003FE140E063E777E0CE010E94101F40E398
:1024A00060E0CE010E942C1F68EA71E0CE01DF914E
:1024B000CF911F910F910C94C724DF91CF911F9161
:1024C0000F9108958F929F92AF92BF92CF92DF9219
:1024D000EF92FF920F931F93CF93DF93EC010E9433
:1024E0000E236B017C018E010A5A1F4FD8014D91BA
:1024F0005D916D917C91D701C601841B950BA60B54
:10250000B70BFE01E65AFF4F9E01225A3F4F590179
:10251000C416D506E606F70681F083339105A105BA
:10252000B10558F01082118212821382D9011D92D6
:102530001D921D921C92139704C080839183A283E5
:10254000B3834081518162817381F50180819181E2
:10255000A281B381480F591F6A1F7B1F408351839B
:102560006283738383E00E9460244C0182E00E94B6
:10257000602421E030E0892811F420E030E0220FCF
:10258000331F41E0892B09F440E0242B223081F4F1
:1025900081E08FA32FEF28AFF50180819181A28187
:1025A000B381893C9105A105B105A0F08EEC10C066
:1025B000233089F421E02FA328AFF5018081918198
:1025C000A281B381893C9105A105B10518F082E390
:1025D00089AF01C029AFD801CD92DD92ED92FC9276
:1025E0001397DF91CF911F910F91FF90EF90DF90A4
:1025F000CF90BF90AF909F908F9008951F93CF93EF
:10260000DF9300D0CDB7DEB7DC01162F19821A8216
:10261000462F50E0415151094D30510508F050C04E
:10262000405B5F4FFA010C94F92984E989838FE0BC
:102630008A838C91882309F443C08FE840C01F9699
:102640008C911F978983FD01E05CFF4F808137C02B
:10265000FC01EC5BFF4F30C050968C915097898302
:1026600051968C912CC015969C91159716968C912D
:1026700025C0DF968C9190E0880F991FFC01ED52E8
:10268000FE4F2591349129838C529E4FFC018591F8
:10269000949115C019969C9119971A968C910EC019
:1026A00081E08983D4968C91D497D5969C91892B7F
:1026B00006C0FC01E45BFF4F9081818199838A838E
:1026C00067E070E088E592E00E941F06612F88E5D0
:1026D00092E00E94CC0542E050E0BE016F5F7F4F68
:1026E00088E592E00E949F0588E592E00E949806A6
:1026F00084E690E00E9465230F900F90DF91CF91C8
:102700001F9108951F93CF93DF93EC0111E1612F87
:10271000CE010E94FE121F5F1931C9F7DF91CF91E0
:102720001F9108954F925F926F927F928F929F9226
:10273000AF92BF92CF92DF92EF92FF920F931F93CF
:10274000CF93DF93EC010E940E234B015C01888143
:10275000882309F476C08DA1882309F472C088A962
:1027600081116FC0FE01E65BFF4F80819181940172
:10277000281B390B2F30310508F461C0B496C08096
:10278000D180E280F380349720813181428153816E
:10279000C701B6010E9495288E010E581F4FFE01F9
:1027A000E658FF4F9E012A583F4F39012081318161
:1027B00042815381F8011816DCF4608171818281B5
:1027C00093810E948C26F8016083718382839383B6
:1027D000F3014080518062807380A30192010E94C6
:1027E0008C26A70196010E949528181634F51AC068
:1027F00060817181828193810E948B26F8016083C0
:10280000718382839383F30140805180628073805F
:10281000A30192010E948C26A70196010E94F02636
:1028200087FF0BC0A3019201C701B6010E948B264E
:10283000F801608371838283938381E08FA781E0B5
:102840008BAB8FA5882311F11FA6FE01E65BFF4F1E
:1028500091828082BC96208131814281538134975C
:1028600060817181828193810E948C260E94DE08A2
:10287000FE01EC5BFF4F9183808364E1CE010E94F7
:10288000FE12A40161E0CE010E94020F8BA98823F1
:1028900059F18881811128C01BAAFE01E659FF4F1A
:1028A00060817181828193810E94DE08FE01EC5B70
:1028B000FF4F9183808364E1CE010E94FE12A40148
:1028C00060E0CE01DF91CF911F910F91FF90EF90CB
:1028D000DF90CF90BF90AF909F908F907F906F9040
:1028E0005F904F900C94020FDF91CF911F910F9149
:1028F000FF90EF90DF90CF90BF90AF909F908F9020
:102900007F906F905F904F9008958F929F92AF92BB
:10291000BF92CF92DF92EF92FF92CF93DF93EC01C1
:102920006A017B010E94C20F8CA9882389F18EA9BC
:10293000882371F1FE01E259FF4F208131814281EC
:102940005381C701B6010E948B264B015C0120E038
:1029500030E0A9010E94952818165CF420E030E0D0
:1029600040E05FE3C501B4010E94952818165CF0B1
:102970000FC020E030E040E05FEBC501B4010E94F1
:10298000F02687FF05C01EAA68E1CE010E94FE1254
:102990008DA98823D9F18FA98823C1F1FE01E659B9
:1029A000FF4F2081318142815381C701B6010E94CE
:1029B0008B266B017C0120E030E0A9010E94952864
:1029C00018165CF420E030E040E05FE3C701B60198
:1029D0000E94952818165CF019C020E030E040E015
:1029E0005FEBC701B6010E94F02687FF0FC01FAA48
:1029F00068E1CE01DF91CF91FF90EF90DF90CF9013
:102A0000BF90AF909F908F900C94FE12DF91CF916A
:102A1000FF90EF90DF90CF90BF90AF909F908F90FE
:102A20000895CF92DF92EF92FF920F931F93CF936F
:102A3000DF938C016A017B01FC0180A9E8016696A5
:102A400029E23FE14FEF882341F063E777E0CE01D1
:102A50000E94101F40E06AE507C069E372E0CE0102
:102A60000E94101F44E266E0CE010E942C1FF80174
:102A70008489882331F064EB71E0CE010E94C72481
:102A800016C023E23BED4FE151E4C701B6010E94BD
:102A9000F02687FF05C068EA71E0CE010E94C724D6
:102AA00022E030E0B701A601CE010E947826B701EE
:102AB000A601C801DF91CF911F910F91FF90EF9078
:102AC000DF90CF900C948514CF93DF93EC0184E1D9
:102AD0000E94AB23853F91401CF081E089A706C08E
:102AE00019A61CAA1DAA81E08EAB8FAB89A598817F
:102AF000981751F0888361E1CE010E94FE12CE0149
:102B0000DF91CF910C94A70CDF91CF910895CF92D4
:102B1000DF92EF92FF920F931F93CF93DF93EC011D
:102B20008FA1882309F48AC21FA281E08AAB4CAD31
:102B300050E04E30510508F081C2FA01E35AFF4FD0
:102B40000C94F9298E0106591F4F69AD772767FD4F
:102B50007095872F972F0E94C0272AE037ED43E218
:102B60005CE30E944E29D8012D913D914D915C91DD
:102B70000E948C266B017C01F80160837183828343
:102B800093833896608371838283938320E030E05F
:102B900046E153E40E94952818164CF480E090E03A
:102BA000A6E1B3E4F80180839183A283B38320E09C
:102BB00030E040EE50E4D8016D917D918D919C9173
:102BC0000E94F02687FF09C080E090E0A0EEB0E40C
:102BD000F80180839183A283B3838881882309F4D9
:102BE0006BC18DA1811116C0FE01EA58FF4F2081F3
:102BF000318142815381C701B6010E948C260E9417
:102C0000DE08FE01EC5BFF4F9183808364E1CE011F
:102C10000E94FE12CE010E94E50BF80160817181D5
:102C2000828193810E94DE08FE01EE5BFF4F91835B
:102C30008083CF5BDF4F188201C28E0102591F4F84
:102C400069AD772767FD7095872F972F0E94C02762
:102C50002AE037ED43E25CE30E944E29D8012D9132
:102C60003D914D915C910E948C266B017C0120E08E
:102C700030E046E153E40E949528181634F0F8013C
:102C8000C082D182E282F38209C080E090E0A6E1B6
:102C9000B3E4F80180839183A283B38320E030E022
:102CA00040EE50E4D8016D917D918D919C910E94F0
:102CB000F02687FF09C080E090E0A0EEB0E4F801C4
:102CC00080839183A283B383CE010E94210CD8011B
:102CD0006D917D918D919C910E94DE08FE01EA5BD1
:102CE000FF4F91838083CF5BDF4F82E0A6C188AD29
:102CF0009AAD890F09F481E08AAF8AAD8D3010F06A
:102D00008CE08AAFEAADF0E0E85AFE4F659174912D
:102D10006BAF8E0106581F4F70E080E090E00E947C
:102D2000BE2720E030E040E751E40E944E2920E039
:102D300030E543EC57E40E94F426F8016083718388
:102D400082839383CE010E94570CCF5BDF4F84E0D8
:102D500074C18E010A581F4F68AD772767FD7095C3
:102D6000872F972F0E94C0272AE037ED43E25CE3CC
:102D70000E944E29D8012D913D914D915C910E9468
:102D80008C266B017C0120E030E040E450E40E949E
:102D90009528181634F0F801C082D182E282F382BD
:102DA00009C080E090E0A0E4B0E4F8018083918362
:102DB000A283B38320E030E040E450ECD8016D9171
:102DC0007D918D919C910E94F02687FF09C080E043
:102DD00090E0A0E4B0ECF80180839183A283B383F8
:102DE000FE01EE58FF4FD8012D913D914D915C9120
:102DF00060817181828193810E948C260E94DE080D
:102E0000FE01EC5BFF4F9183808364E1CE010E9461
:102E1000FE12CE01DF91CF911F910F91FF90EF90A5
:102E2000DF90CF900C94CB0C8E0106591F4F69ADEB
:102E3000772767FD7095872F972F0E94C0272AE07C
:102E400037ED43E25CE30E944E29F8012081318195
:102E5000428153810E948C266B017C0120E030E08E
:102E600046E153E40E94952818163CF0D801CD9213
:102E7000DD92ED92FC92139709C080E090E0A6E10C
:102E8000B3E4F80180839183A283B38320E030E030
:102E900040EE50E4D8016D917D918D919C910E94FE
:102EA000F02687FF09C080E090E0A0EEB0E4F801D2
:102EB00080839183A283B383D8016D917D918D919D
:102EC0009C919DCE88AD9F85890F833308F082E366
:102ED0008F878F85811102C081E08F8762E1CE01EB
:102EE0000E94FE12CE010E94B00DCF5BDF4F85E045
:102EF000A4C0FE01E05CFF4F88AD9081890F84364D
:102F000008F083E680838081811102C081E08083A4
:102F100062E1CE010E94FE12CE010E94060DCF5B3F
:102F2000DF4F88E08AC088AD9FAD890F833308F0FA
:102F300082E38FAF8FAD811102C081E08FAF63E17B
:102F4000CE010E94FE12CE010E94300DCF5BDF4FFA
:102F500089E073C088AD9889890F8F3108F08EE1C0
:102F6000888B8889811102C081E0888B65E1CE0160
:102F70000E94FE12CE010E946D0ECF5BDF4F8CE0EF
:102F80005CC088AD9989890F8F3108F08EE1898BFB
:102F90008989811102C081E0898B65E1CE010E949F
:102FA000FE12CE010E94950ECF5BDF4F8DE045C033
:102FB00029AD8D819E81820F911D27FD9A9597FFE6
:102FC00003C01E821D8202C09E838D838D819E81DF
:102FD00085369F4A20F084E69FEA9E838D8366E1D2
:102FE000CE010E94FE12CE010E94900DCF5BDF4FFA
:102FF00086E023C028AD89859A8534E02302800DC0
:10300000911D11248931A1E09A0710F489E191E022
:103010009A87898789859A858233924020F081E357
:1030200092E09A87898767E1CE010E94FE12CE0165
:103030000E94BD0ECF5BDF4F8AE08883DF91CF9186
:103040001F910F91FF90EF90DF90CF900895FF9226
:103050000F931F93CF93DF93EC01062F67E070E08F
:1030600088E592E00E941F06602F88E592E00E94AA
:10307000CC0588E592E00E94980684E690E00E94E4
:10308000652342E050E067E070E088E592E00E944E
:10309000950688E592E00E947405029759F488E548
:1030A00092E00E947C05F82E88E592E00E947C0563
:1030B000182FEFCF0A3129F00B3111F1093129F521
:1030C00006C02F2D30E0312B3C832B831EC0812F77
:1030D00083702F2D30E0382B14FB882780F98B8BE1
:1030E00015FB882780F98C8B16FB882780F98D8B40
:1030F00012FF03C03195219531093A83298305C018
:103100002F2D30E0312B38872F8384E690E0DF913C
:10311000CF911F910F91FF900C9465230F931F93F4
:10312000CF93DF938C01FC0180A9E801C25BDF4FE4
:10313000813009F067C0688179818A819B8123E0B1
:1031400030E040E050E00E94D729672B682B692BC4
:10315000F9F469E1C8010E942718F80161817281C0
:10316000882777FD8095982F0E94C02725E73AECA5
:1031700043E25CE30E944E29AB01BC01C8010E94FE
:10318000E60DF8018589811103C0C8010E948213F0
:10319000688179818A819B8123E030E040E050E0C2
:1031A0000E94D7296130710581059105E1F46BE139
:1031B000C8010E942718F8016781708580E090E0BF
:1031C0000E94BE2720E030E040E85EE30E944E29E6
:1031D00020E030E044EA51E40E948B26AB01BC01C0
:1031E000C8010E943A0E688179818A819B8123E01F
:1031F00030E040E050E00E94D7296230710581053F
:10320000910571F46AE1C8010E942718F8018381D1
:1032100094810E94B608AB01BC01C8010E9411153F
:1032200088819981AA81BB810196A11DB11D8883E6
:103230009983AA83BB83DF91CF911F910F9108954A
:10324000CF93DF93EC010E94651F1B821A828FEBE4
:1032500091E0998388831F8218868FE789878FE39F
:103260008A871B861C861D861E86DF91CF91089556
:103270002F923F924F925F926F927F928F929F9286
:10328000AF92BF92CF92DF92EF92FF920F931F9374
:10329000CF93DF9300D0CDB7DEB71C01162FD22E0F
:1032A000FE2CEC2C8F2D90E0840F911D202F30E010
:1032B00028173907C4F0242F277081E090E0022EF0
:1032C00001C0880F0A94EAF799249A94980E842FE3
:1032D000887F882EC42ECF0CEC2DE87F7E2EAA246A
:1032E000A394B12C4FC02D2DC1010E945D2193C02C
:1032F000E42DF0E0852D877002C0F595E7958A955D
:10330000E2F7752F7770E0FF07C09501072E01C027
:10331000220F0A94EAF7622A5394852D877009F4E4
:1033200049C0773059F4452F487F612FC1010E9471
:10333000EC1F662DC1010E945320612C552D5F1991
:103340000515B0F6552E5F0C752F7770551145C0D9
:10335000C1F04FEF450F487F612FC1017A830E9472
:10336000EC1FC1010E9428207A81F50101C0EE0FF7
:103370007A95EAF76E2F619568236629C1010E944C
:1033800053201F5FD11608F446C0482D612FC1019C
:103390000E94EC1FC1010E942820682E69205C2C2D
:1033A000472D612FC1010E94EC1FC1010E942820FE
:1033B000482EC4CFFFE3F51508F4B3CF452D487F61
:1033C000612FC10159837A830E94EC1FC1010E94C1
:1033D0002820482E7A815981A4CF8FEF9501072E9E
:1033E00001C0220F0A94EAF7E81202C0622A02C062
:1033F00020956222773069F4452F487F612FC10103
:1034000059830E94EC1F662DC1010E945320612C3C
:1034100059815F5F99CF0F900F90DF91CF911F91EE
:103420000F91FF90EF90DF90CF90BF90AF909F9063
:103430008F907F906F905F904F903F902F90089566
:103440002F923F924F925F926F927F928F929F92B4
:10345000AF92BF92CF92DF92EF92FF920F931F93A2
:10346000CF93DF9300D01F92CDB7DEB79B838A83C3
:10347000162FD42E922EFE2CEC2C8F2D90E0840F44
:10348000911D202F30E028173907DCF0202F2770FE
:103490002F5F81E090E0022E01C0880F0A94EAF7C6
:1034A000782E7194802F887F8983C02ECF18EC2DC1
:1034B000E87F5E2EAA24A394B12C882483948F18CD
:1034C00065C0292D8A819B810E945D21A1C02A941B
:1034D000822D8770873061F4422D487F612F8A8169
:1034E0009B810E94EC1F8A819B810E942820682E6C
:1034F0002D1430F1E62DF0E0822D877002C0F59595
:10350000E7958A95E2F7332D3770E0FF07C0C501D4
:10351000032E01C0880F0A94EAF7482A31110DC022
:10352000432D487F612F8A819B810E94EC1F642D6F
:103530008A819B810E945320412C3A942110C7CF4D
:103540002F2C632C6F18462D420D21103CC0482DA6
:10355000430D842F8770282EC1F0487F612F8A8108
:103560009B810E94EC1F8A819B810E9428209501EB
:10357000022C01C0220F0A94EAF76FEF620F682352
:1035800064298A819B810E9453201F5F911608F451
:103590003FC04981612F8A819B810E94EC1F8A81F3
:1035A0009B810E942820482E47202C2C452D612FDE
:1035B0008A819B810E94EC1F8A819B810E94282026
:1035C000682E302E95CF642F6770FFEFEF1208C082
:1035D000C501062E01C0880F0A94EAF7482A08C0E0
:1035E0009501062E01C0220F0A94EAF72095422287
:1035F00061110CC0487F612F8A819B810E94EC1F62
:10360000642D8A819B810E945320412C2A949BCF58
:103610000F900F900F90DF91CF911F910F91FF901E
:10362000EF90DF90CF90BF90AF909F908F907F9062
:103630006F905F904F903F902F900895CF92EF92B0
:103640000F931F93CF93DF93EC016A3009F087C08B
:103650008D819E81E0911803F091190303960995DD
:10366000182FE0911803F09119038D819E8109951F
:1036700081110BC08D819E81E0911803F091190397
:1036800001960995813009F46CC06C852985621713
:1036900068F44D8581E09C819F3F09F480E0E82E2D
:1036A000E194012F040FCE010E945D218B85ED84F2
:1036B000212F30E080FD2CC00A85220F331F2E0DF4
:1036C000311D802F90E028173907ECF08E8581118D
:1036D00003C081E08E8747C081E09C819F3F09F451
:1036E00080E0C82EC194E394E01A812F880FE80E81
:1036F000298548856F81CE010E9438198F818C877A
:103700008A85811B29C08F818C87E394E10E0CC0D0
:1037100048856E2D70E0240F311D2617370734F4CD
:103720008F818C87EA94E11AED8617C08E858823F5
:1037300081F281E09C819F3F09F480E0C82EC19412
:10374000E394E41AE10E0A8529856F81CE010E9477
:10375000201A8F818C8788858D8781E004C080E066
:1037600002C0115092CFDF91CF911F910F91EF9036
:10377000CF9008952F923F924F925F926F927F92D7
:103780008F929F92AF92BF92CF92DF92EF92FF9271
:103790000F931F93CF93DF93CDB7DEB766970FB626
:1037A000F894DEBF0FBECDBF9E8B8D8B162FDC0134
:1037B00015968D919C911697892B19F480E090E0D5
:1037C00006C3603228F1ED89FE8985819681E091FA
:1037D0001803F091190303960995D82EAD89BE8977
:1037E00015968D919C911697E0911803F09119030D
:1037F00004960995C82EED89FE8985819681E09110
:103800001803F0911903059609951C1540F4D6CFBD
:103810008D899E890E941E1B8823A9F2D6C2412F42
:1038200050E0E82EF12C97012C0D311D4217530763
:103830002CF62D2D30E03E832D83590137E0A30E69
:10384000B11CF3E0B594A794FA95E1F71C19C12EC9
:10385000E0911803F0911903AD89BE8915968D91F9
:103860009C9116970995811160C2ED89FE89858129
:103870009681E0911803F091190301960995823021
:1038800008F053C2AD89BE8915968D919C9116970B
:10389000E0911803F091190302960995E82E1A9DFC
:1038A000C0011B9D900D1124E89E8001E99E100D22
:1038B00011240A5F1F4F912CEE2009F47FCFED8970
:1038C000FE898685882341F06AE0CF010E94BA1BF9
:1038D000AD89BE891E961C92ED89FE8983856E2C6A
:1038E000712C81FF15C0F48485819681E0911803C5
:1038F000F09119030296099590E08619970997FDB2
:103900000196959587958F0DAD89BE891C968C93F0
:10391000ED89FE8984855301A80EB11CE09118033E
:10392000F0911903AD89BE8915968D919C911697DA
:10393000099581110DC0ED89FE8985819681E091FF
:103940001803F09119030196099591E0813009F06F
:1039500090E0A91AB108AD89BE8919968C91199782
:1039600090E08A159B055CF56AE0CD010E94BA1BC8
:10397000ED89FE898685882341F06AE0CF010E94A7
:10398000BA1BAD89BE891E961C92ED89FE8983857E
:1039900081FF15C0F48485819681E0911803F09130
:1039A00019030296099590E08619970997FD0196EB
:1039B000959587958F0DAD89BE891C968C93E09166
:1039C0001803F0911903AD89BE8915968D919C91CC
:1039D000169709958111DAC1ED89FE898581968155
:1039E000E0911803F091190301960995813009F0CF
:1039F000CDC1AD2CF12C28E030E08D2D8770281B37
:103A000031093A8329839301200F311F388B2F8787
:103A10002A2D30E03C832B8322242394312CFA146A
:103A200008F047C1AD89BE891D96BC901D97BF0C9B
:103A30004B2D487F1C966C911C97CD010E94EC1F6A
:103A40008F2D8695869586958E9D900111243887B9
:103A50002F83412C512C8F2D90E09C01287F4D818C
:103A60005E81421B530B5A8749872F8538894F81C6
:103A70005885240F351F3C872B872B813C81281BC1
:103A8000390B3E872D872B2D2770C22E4E1408F040
:103A9000B7C0FD1420F58F819885800F911F840D8C
:103AA000951DAD89BE8915964D915C911697E09153
:103AB0001803F0911903840F951F0995882E9920FA
:103AC00079F029853A852830310554F490E0098051
:103AD00002C0959587950A94E2F7882E01C0812C43
:103AE000AD89BE8914968C91811101C080943C2DC2
:103AF0008B2D8F29877091F44D855E854830510557
:103B00006CF0AD89BE891B968C911B9782FF04C017
:103B1000CD010E942820882A682D6AC08D899E893F
:103B20003B8B0E942820C82E2F2D6B857C85640D31
:103B3000751D3B89422F4770882D90E0042E02C0EE
:103B4000959587950A94E2F780FF08C0C101032E7E
:103B500001C0880F0A94EAF7C82A08C0C101032EE1
:103B600001C0880F0A94EAF78095C822473061F5B2
:103B7000ED89FE8985819681E0911803F091190302
:103B8000860F971F298B3B8B6C8B7A8B0995882E20
:103B900029893B896C897A89992079F08D819E8168
:103BA000821B910909974CF4882D90E0098002C08E
:103BB000959587950A94E2F7882EAD89BE8914966B
:103BC0008C91811101C080942F5F3F5F383059F490
:103BD000ED89FE89838582FF0AC08D899E890E94B6
:103BE0002820C82A04C02A1508F4A4CFF1CF6C2DD0
:103BF0008D899E890E945320FFEF4F1A5F0A43CFA1
:103C0000E0911803F0911903AD89BE8915968D9145
:103C10009C911697099581110CC0ED89FE898581CB
:103C20009681E0911803F09119030196099581306E
:103C3000E1F14F2C512CC11007C08B819C8184195C
:103C4000950908970CF0AAC08D899E890E942820AA
:103C5000CC2009F49FC0B1010C2C01C0660F0A945E
:103C6000EAF761502B813C81241935092830310550
:103C70004CF4A10102C0440F551F2A95E2F79A01A6
:103C80002195622BAD89BE8914969C91911184C0B7
:103C90006095682BAD89BE891B968C911B9782FD20
:103CA00085C08D899E890E945320FC18B8E0FB0EC8
:103CB000B6CEED89FE8984858E0D8487838581FF4C
:103CC00019C085819681E0911803F091190302963D
:103CD0000995AD89BE891C962C912E19280F90E06C
:103CE0008619970997FD019695958795281BED896B
:103CF000FE892487E0911803F0911903AD89BE89EC
:103D000015968D919C9116970995811159C0ED8951
:103D1000FE8985819681E0911803F091190301963F
:103D20000995813009F04CC050C006E010E0812CAC
:103D3000912CAD89BE8915968D919C911697E09135
:103D40001803F09119032AEF200F2C1540F4800F6F
:103D5000911F0995880E911C0F5F1F4FEACF8A9C17
:103D600090018B9C300D9A9C300D112487010A5FC5
:103D70001F4F020F131F2C2D30E02A5F3F4F820F81
:103D8000931F0995E82E9924939496CDAA24A39481
:103D9000AD0C30CE60E066CF68237CCF61E0ED896A
:103DA000FE898481811160E0619574CF6F3F09F4D1
:103DB00078CFCD016C8B0E9428206C89682B71CF45
:103DC000ED89FE8984858F5F848781E090E0669627
:103DD0000FB6F894DEBF0FBECDBFDF91CF911F911C
:103DE0000F91FF90EF90DF90CF90BF90AF909F909A
:103DF0008F907F906F905F904F903F902F9008959D
:103E00006D3011F00C94BA1B81E090E00895FC0134
:103E10008781680F64878085480F458716860895D7
:103E2000FC01768365833093190320931803448340
:103E30000895CF93DF93EC010E94201987EC91E065
:103E40009983888310922D03DF91CF9108950C946C
:103E5000FD21FC01849108950F931F93CF93DF936D
:103E6000EC01162F042F0E94EC1F402F612FCE0172
:103E7000DF91CF911F910F910C94071FFF920F9329
:103E80001F93CF93DF93EC01F62E10E0412F60E0FB
:103E9000CE010E942C1F00E06F2D8AE193E00E946A
:103EA00053200F5F0038C1F7185F103479F740E0F6
:103EB00060E0CE01DF91CF911F910F91FF900C94A4
:103EC000071F8AE193E00C94191F0895613019F4DB
:103ED0004098419A0895409A419808950E94661F1B
:103EE00020982198229851988AB18F708AB9289881
:103EF00029982A985998289A299A2A9A599A8BB1D6
:103F0000806F8BB9429A4398589AC89500C083B184
:103F10008170199982601A9984604999886099B171
:103F20005898907F892B08950E94661F20982198A9
:103F3000229851988AB18F708AB9429A4398589AB8
:103F4000C89500C04F99FECF5898089560912903F5
:103F500062956695669563700E94941F429A439A93
:103F600000C0589AC89500C083B1817019998260C9
:103F70001A9984604999886099B15898907F892BE3
:103F80000895CF93C62F642F0E94941F42984398A0
:103F90002098219822985198209A219A229A519AF1
:103FA0008AB1806F8AB9289829982A985998C0FDB3
:103FB000289AC1FD299AC2FD2A9AC3FD599A8BB14C
:103FC000C07F8F70C82BCBB900C0589AC895C895D0
:103FD00000005898CF9108950F931F93CF93DF93CC
:103FE000EC01162F80912903681304C080912A03E5
:103FF000481749F117FD27C0403428F510932903CD
:1040000040932A03012F0295069506950370642FAD
:10401000669566956695E02FF0E0E55DFC4F808142
:10402000681731F06083686B402FCE010E94C11F7A
:10403000612F6F736064402FCE01DF91CF911F918C
:104040000F910C94C11FDF91CF911F910F91089593
:10405000EF92FF921F93CF93DF931F92CDB7DEB7FE
:104060007C016091290367FD16C069830E94A61F29
:10407000C7010E94A61F182F80912D03698181110D
:1040800010958FEF8093290340912A03C7010E9466
:10409000EC1F812F01C080E00F90DF91CF911F9125
:1040A000FF90EF9008958F929F92BF92CF92DF92F0
:1040B000EF92FF920F931F93CF93DF931F92CDB791
:1040C000DEB74C01062FD0902903D7FCE9C0D2946B
:1040D000D694D69483E0D82230912A03377009F41D
:1040E00091C0C40139830E942820C82E6D2DC401BF
:1040F0000E94941F4298439A2098219822985198A0
:10410000209A219A229A519A9AB1906F9AB900C036
:10411000589A10E03981E32EF12CC80102C0880FB3
:10412000991F3A95E2F79C012C2980912D0381116A
:104130002095289829982A98599820FD289A21FD99
:10414000299A22FD2A9A23FD599A8BB1207F8F70DC
:10415000282B2BB9C895C89500005898C0902A0301
:104160002C2D30E0285F3F4F287F203431050CF0A4
:1041700044C048E04C0D487F60912903C4010E946F
:10418000EC1FC4010E942820B82E6D2DC4010E948E
:10419000941F4298439A2098219822985198209AE7
:1041A000219A229A519A9AB1906F9AB900C0589A5E
:1041B00028E030E02E193F09F80102C0F595E79597
:1041C0002A95E2F79F012B2980912D0381112095DB
:1041D000289829982A98599820FD289A21FD299AEB
:1041E00022FD2A9A23FD599A8BB1207F8F70282BAC
:1041F0002BB9C895C89500005898609129036F5F46
:104200004C2D3FC06D2DC4010E94941F4298439ACB
:104210002098219822985198209A219A229A519A6E
:104220008AB1806F8AB980912D038111009500C0F9
:10423000589A289829982A98599800FD289A01FD9B
:10424000299A02FD2A9A03FD599A8BB1007F8F703B
:10425000082B0BB9C895C8950000589860912903A0
:104260006F5F60932903962F92959695969593701C
:104270009D15B1F067FD14C09FEF90932903409105
:104280002A03C4010F90DF91CF911F910F91FF90EE
:10429000EF90DF90CF90BF909F908F900C94EC1F89
:1042A0000F90DF91CF911F910F91FF90EF90DF90D2
:1042B000CF90BF909F908F9008957F928F929F9202
:1042C000AF92BF92CF92DF92EF92FF920F931F9324
:1042D000CF93DF93EC01F62E122F041B0F5F161BFA
:1042E0001F5F542F5770942E951AC02ED12C88E042
:1042F00090E09C01251B3109C216D30664F49C0191
:104300002C193D098FEF90E002C0959587952A956D
:10431000E2F7802E04C098E0892E851A8FEFA82E30
:1043200001C0AA0C5A95EAF77A2C492D6F2DCE01BF
:104330000E94EC1FB12CA094B11678F4CE010E941B
:1043400028209FEF682FE91202C0672901C06A2167
:10435000CE010E945320B394EFCF8918482D490D08
:10436000842F90E09C01295F3F4F2C153D0584F47C
:1043700088E0980E492D6F2DCE010E94EC1FB12CC4
:10438000B11660F76E2DCE010E945320B394F8CF82
:10439000401728F5C81AD90A8FEF90E00C2C01C0FD
:1043A000880F0A94EAF7D82ED09448E0490D6F2D73
:1043B000CE010E94EC1F00E0FD2CF094011778F470
:1043C000CE010E9428209FEF682FE91202C06D29BC
:1043D00001C06F21CE010E9453200F5FEFCFDF910C
:1043E000CF911F910F91FF90EF90DF90CF90BF90F2
:1043F000AF909F908F907F900895EF92FF920F93D0
:104400001F93CF93DF93EC013B9A3A9A509A5898B6
:10441000389A4098399A4198429843988FEF809300
:10442000290380932A0360932D0362E370E080E008
:1044300090E00E943D230BE213E0F12CEE24EA947D
:104440006F2DCE010E946E1F84FD23C087FD24C006
:10445000F801E1928F014F2D6FE3CE010E94C11F41
:104460004F2D60ECCE010E94C11FF394F2E0FF12C9
:10447000E7CFE12C0FE32FE740E060E0CE010E94A0
:104480005D2140E060E0CE010E94EC1F80E090E002
:1044900005C082E090E002C081E090E0DF91CF9122
:1044A0001F910F91FF90EF90089508958230E8F4E6
:1044B000E82FF0E0EE0FFF1FE65FFE4F7183608391
:1044C000813041F0809169008C7F842B809369005A
:1044D000E89A089580916900440F551F440F551FB5
:1044E000837F842B80936900E99A08951F920F922D
:1044F0000FB60F9211242F933F934F935F936F93B7
:104500007F938F939F93AF93BF93EF93FF93E0912C
:104510000A01F0910B010995FF91EF91BF91AF91C5
:104520009F918F917F916F915F914F913F912F91CB
:104530000F900FBE0F901F9018951F920F920FB6FD
:104540000F9211242F933F934F935F936F937F9319
:104550008F939F93AF93BF93EF93FF93E0910C01E1
:10456000F0910D010995FF91EF91BF91AF919F914E
:104570008F917F916F915F914F913F912F910F900C
:104580000FBE0F901F9018951F920F920FB60F92AB
:1045900011242F933F938F939F93AF93BF93809159
:1045A0002F0390913003A0913103B09132033091E9
:1045B0002E0323E0230F2D3720F40196A11DB11DFA
:1045C00005C026E8230F0296A11DB11D20932E03DE
:1045D00080932F0390933003A0933103B093320361
:1045E0008091330390913403A0913503B091360349
:1045F0000196A11DB11D8093330390933403A093C2
:104600003503B0933603BF91AF919F918F913F9146
:104610002F910F900FBE0F901F9018952FB7F89401
:1046200060912F0370913003809131039091320398
:104630002FBF08953FB7F8948091330390913403CE
:10464000A0913503B091360326B5A89B05C02F3F36
:1046500019F00196A11DB11D3FBF6627782F892F44
:104660009A2F620F711D811D911D42E0660F771F09
:10467000881F991F4A95D1F70895CF92DF92EF9244
:10468000FF92CF93DF936B017C010E941A23EB0111
:10469000C114D104E104F10489F00E948A260E9429
:1046A0001A236C1B7D0B683E734090F381E0C81A9F
:1046B000D108E108F108C851DC4FEACFDF91CF9172
:1046C000FF90EF90DF90CF9008958230910538F001
:1046D000880F991F880F991F05970197F1F7089583
:1046E000789484B5826084BD84B5816084BD85B5CD
:1046F000826085BD85B5816085BDEEE6F0E0808194
:1047000081608083E1E8F0E01082808182608083B4
:10471000808181608083E0E8F0E080818160808337
:10472000E1EBF0E0808184608083E0EBF0E0808169
:1047300081608083EAE7F0E080818460808380810B
:1047400082608083808181608083808180688083B3
:104750001092C10008958E3008F08E50877020911D
:104760000E0190E4299F90011124822B80937C00FC
:1047700080917A00806480937A0080917A0086FD2F
:10478000FCCF809178002091790090E0922B0895E1
:10479000833081F028F4813099F08230A1F00895BF
:1047A0008730A9F08830B9F08430D1F4809180004E
:1047B0008F7D03C0809180008F7780938000089563
:1047C00084B58F7702C084B58F7D84BD08958091B4
:1047D000B0008F7703C08091B0008F7D8093B000D0
:1047E0000895CF93DF9390E0FC01EE58F64F2491AB
:1047F000FC01EA57F64F8491882349F190E0880F35
:10480000991FFC01E255F64FA591B4918C55964F36
:10481000FC01C591D4919FB7611108C0F8948C91A7
:10482000209582238C93888182230AC0623051F4C0
:10483000F8948C91322F309583238C938881822B2E
:10484000888304C0F8948C91822B8C939FBFDF9156
:10485000CF9108950F931F93CF93DF931F92CDB7FE
:10486000DEB7282F30E0F901E25AF64F8491F901C2
:10487000EE58F64F1491F901EA57F64F04910023D0
:10488000C9F0882321F069830E94C8236981E02F41
:10489000F0E0EE0FFF1FEC55F64FA591B4919FB7D6
:1048A000F8948C91611103C01095812301C0812B74
:1048B0008C939FBF0F90DF91CF911F910F9108951F
:1048C000CF93DF93282F30E0F901E25AF64F84911D
:1048D000F901EE58F64FD491F901EA57F64FC49119
:1048E000CC2391F081110E94C823EC2FF0E0EE0F51
:1048F000FF1FE656F64FA591B4912C912D2381E030
:1049000090E021F480E002C080E090E0DF91CF9160
:104910000895CF92DF92EF92FF920F931F93CF9360
:10492000DF937C016A01EB0100E010E00C151D052E
:1049300071F06991D701ED91FC910190F081E02D2A
:10494000C7010995892B19F00F5F1F4FEFCFC801E1
:10495000DF91CF911F910F91FF90EF90DF90CF905B
:1049600008956115710581F0DB010D900020E9F7D4
:10497000AD0141505109461B570BDC01ED91FC91F3
:104980000280F381E02D099480E090E008950C947A
:10499000B124DC01ED91FC910190F081E02D0994AE
:1049A0008F929F92AF92BF92CF92DF92EF92FF923F
:1049B0000F931F93CF93DF93CDB7DEB7A1970FB6B9
:1049C000F894DEBF0FBECDBF7C01C42EE52FCB0116
:1049D000D22E19A221E02D1510F02AE0D22E8E0140
:1049E0000F5D1F4F8D2C912CA12CB12C6C2D7E2F87
:1049F000A50194010E94D7298C2DD29E80191124E3
:104A0000015011098A3014F4805D01C0895CF801FD
:104A10008083211531054105510521F0C22EE32F78
:104A2000CA01E4CFB801C7010E94B124A1960FB614
:104A3000F894DEBF0FBECDBFDF91CF911F910F91D4
:104A4000FF90EF90DF90CF90BF90AF909F908F90AE
:104A50000895CF92DF92EF92FF920F931F93CF931F
:104A6000DF93EC016A017B012115310579F4E881BE
:104A7000F9810190F081E02D642FDF91CF911F919A
:104A80000F91FF90EF90DF90CF9009942A3031057D
:104A9000E9F477FF1AC06DE20E94C9248C01442713
:104AA0005527BA014C195D096E097F092AE0CE012C
:104AB0000E94D024800F911FDF91CF911F910F9101
:104AC000FF90EF90DF90CF9008952AE0B701A60104
:104AD000CE01DF91CF911F910F91FF90EF90DF906A
:104AE000CF900C94D0242115310541F4DC01ED91D7
:104AF000FC910190F081E02D642F09940C94D02456
:104B00009A01462F50E060E070E00C9473259A0102
:104B1000AB0160E070E00C9473254F925F926F924E
:104B20007F928F929F92AF92BF92CF92DF92EF923D
:104B3000FF920F931F93CF93DF93EC016A017B01E8
:104B4000B22E9A01AB01C701B6010E94B129882398
:104B500019F06EEC71E027C026013701E89477F870
:104B60002FEF3FEF4FE75FE7C301B2010E94B1298A
:104B700081110DC02FEF3FEF4FE75FE7C301B20197
:104B80000E94F02618161CF462ED71E00CC02FEFA5
:104B90003FEF4FE75FE4C701B6010E949528181662
:104BA000ACF466ED71E0CE01DF91CF911F910F91D2
:104BB000FF90EF90DF90CF90BF90AF909F908F903D
:104BC0007F906F905F904F900C94B1242FEF3FEF48
:104BD0004FE75FECC701B6010E94F02687FDE1CFE9
:104BE00020E030E0A901C701B6010E94F02687FF4E
:104BF0000AC06DE2CE010E94C9248C01F7FAF0943C
:104C0000F7F8F09402C000E010E0A12C60E070E042
:104C100080E09FE3AB1441F020E030E040E251E45B
:104C20000E94F426A394F6CF9B01AC01C701B60104
:104C30000E948C266B017C010E9492272B013C0173
:104C40000E94BE279B01AC01C701B6010E948B26C2
:104C50006B017C012AE0B301A201CE010E94D024A5
:104C6000080F191FBB2039F06DE371E0CE010E94DF
:104C7000B124080F191F7B2C772041F120E030E090
:104C800040E251E4C701B6010E944E296B017C014C
:104C90000E948D274B01AA2497FCA094BA2C2AE0ED
:104CA00030E0B501A401CE010E942925080F191F8B
:104CB000C501B4010E94C0279B01AC01C701B60128
:104CC0000E948B266B017C017A94D6CFC801DF91BC
:104CD000CF911F910F91FF90EF90DF90CF90BF90F9
:104CE000AF909F908F907F906F905F904F900895BE
:104CF0000C948D2508950E9470230E947A260E94AC
:104D00000D05C0E0D0E00E944C052097E1F30E9421
:104D10000000F9CF08955058BB27AA270ED0CBC169
:104D2000BCD130F0C1D120F031F49F3F11F41EF41A
:104D30008CC10EF4E095E7FB82C1E92FCDD180F361
:104D4000BA17620773078407950718F071F49EF588
:104D5000E5C10EF4E0950B2EBA2FA02D0B01B90181
:104D600090010C01CA01A0011124FF27591B99F0E1
:104D7000593F50F4503E68F11A16F040A22F232FED
:104D8000342F4427585FF3CF469537952795A7953D
:104D9000F0405395C9F77EF41F16BA0B620B730BE4
:104DA000840BBAF09150A1F0FF0FBB1F661F771F55
:104DB000881FC2F70EC0BA0F621F731F841F48F40A
:104DC000879577956795B795F7959E3F08F0B3CF90
:104DD0009395880F08F09927EE0F9795879508957A
:104DE0000AD108F481E008950CD065C15DD140F08E
:104DF00054D130F021F45F3F19F021C151118FC11E
:104E000024C16AD198F39923C9F35523B1F3951BB3
:104E1000550BBB27AA2762177307840738F09F5FDB
:104E20005F4F220F331F441FAA1FA9F333D00E2E4A
:104E30003AF0E0E830D091505040E695001CCAF7B7
:104E400029D0FE2F27D0660F771F881FBB1F26177C
:104E500037074807AB07B0E809F0BB0B802DBF014F
:104E6000FF2793585F4F2AF09E3F510568F0E7C037
:104E700056C15F3FECF3983EDCF3869577956795D6
:104E8000B795F7959F5FC9F7880F911D9695879500
:104E900097F90895E1E0660F771F881FBB1F62171F
:104EA00073078407BA0720F0621B730B840BBA0BDD
:104EB000EE1F88F7E095089519F40EF0C0C02EC1DA
:104EC000C4C012D1C8F39638C0F707F80F92E8941F
:104ED0002BE33AEA48EB5FE7EFD10F920F920F9284
:104EE0004DB75EB70F92A7D1E6EDF0E0B1D04F918C
:104EF0005F91EF91FF91E595EE1FFF1F49F0FE577F
:104F0000E0684427EE0F441FFA95E1F74195550BF1
:104F100019D10F9007FE0DC1089504D06894B11106
:104F2000FEC00895E1D088F09F5790F0B92F9927DF
:104F3000B751A0F0D1F0660F771F881F991F1AF0A4
:104F4000BA95C9F712C0B13081F0E8D0B1E0089548
:104F5000E5C0672F782F8827B85F39F0B93FCCF3C9
:104F6000869577956795B395D9F73EF4909580959A
:104F7000709561957F4F8F4F9F4F0895E89409C0BA
:104F800097FB3EF490958095709561957F4F8F4F7C
:104F90009F4F9923A9F0F92F96E9BB279395F69592
:104FA000879577956795B795F111F8CFFAF4BB0F10
:104FB00011F460FF1BC06F5F7F4F8F4F9F4F16C074
:104FC000882311F096E911C0772321F09EE8872FFE
:104FD000762F05C0662371F096E8862F70E060E0BA
:104FE0002AF09A95660F771F881FDAF7880F969533
:104FF000879597F90895990F0008550FAA0BE0E8D7
:10500000FEEF16161706E807F907C0F0121613068A
:10501000E407F50798F0621B730B840B950B39F4CA
:105020000A2661F0232B242B252B21F408950A2630
:1050300009F4A140A6958FEF811D811D089597F970
:105040009F6780E870E060E008959FEF80EC08952E
:10505000DF93CF931F930F93FF92EF92DF927B0129
:105060008C01689405C0DA2EEF0124D1FE01E8948A
:10507000A5912591359145915591AEF3EF015DDEF6
:10508000FE019701A801DA9479F7DF90EF90FF9085
:105090000F911F91CF91DF91089500240A94161665
:1050A000170618060906089500240A941216130616
:1050B000140605060895092E0394000C11F48823A4
:1050C00052F0BB0F40F4BF2B11F460FF04C06F5FC0
:1050D0007F4F8F4F9F4F089557FD9058440F551F96
:1050E00059F05F3F71F04795880F97FB991F61F06A
:1050F0009F3F79F087950895121613061406551FE1
:10510000F2CF4695F1DF08C0161617061806991F4C
:10511000F1CF86957105610508940895E894BB2741
:1051200066277727CB0197F9089565DF08F48FEF9D
:1051300008959B01AC0160E070E080E89FE354CEED
:105140007ECF13C1D1DFE8F39923D9F3940F511D1A
:10515000BBF39150504094F059F0882332F0660F21
:10516000771F881F91505040C1F79E3F510544F76B
:10517000880F911D9695879597F908955F3FACF03C
:10518000983E9CF0BB27869577956795B79508F470
:10519000B1609395C1F7BB0F58F711F460FFE8CFEA
:1051A0006F5F7F4F8F4F9F4FE3CFB9CF0EF0DDC0C2
:1051B0004CCF689444CF98DFC8F39923D1F3C6F35A
:1051C000DF93CF931F930F93FF92C92FDD2788237F
:1051D0002AF02197660F771F881FDAF720E030E06A
:1051E00040E85FEB9FE3883920F0803E30F0219665
:1051F0008F7792DDEEEFF0E003C08EDDEBE2F1E0C1
:1052000027DF8B01BE01EC01FB2E6F5771097595ED
:10521000771F880B990BB4DE28E132E741E35FE3A7
:1052200049D0AF2D9801AE01FF900F911F91CF9102
:10523000DF9183DD40CFFA01DC01AA0FBB1F9B0188
:10524000AC01BF5728F422273327442750781FC0CA
:10525000B75188F4AB2F0024469537952795011C4C
:10526000A395D2F3002069F0220F331F441FB3959A
:10527000DAF30DD050CD61307105A0E88A07B94648
:1052800030F49B01AC016627772788279078309609
:1052900021F0208331834283538308950BD00BCFB9
:1052A000FCDE28F001DF18F0952309F0C8CECDCE42
:1052B000112435CF11DFA0F3959FD1F3950F50E066
:1052C000551F629FF001729FBB27F00DB11D639FB8
:1052D000AA27F00DB11DAA1F649F6627B00DA11D5E
:1052E000661F829F2227B00DA11D621F739FB00D04
:1052F000A11D621F839FA00D611D221F749F332774
:10530000A00D611D231F849F600D211D822F762F0C
:105310006A2F11249F5750408AF0E1F088234AF009
:10532000EE0FFF1FBB1F661F771F881F9150504055
:10533000A9F79E3F510570F082CEF1CE5F3FECF3AE
:10534000983EDCF3869577956795B795F795E79541
:105350009F5FC1F7FE2B880F911D9695879597F952
:10536000089549DE880B990B08959F3F31F09150C5
:1053700020F4879577956795B795880F911D969539
:10538000879597F90895AA1BBB1B51E107C0AA1F77
:10539000BB1FA617B70710F0A61BB70B881F991FD6
:1053A0005A95A9F780959095BC01CD010895A1E289
:1053B0001A2EAA1BBB1BFD010DC0AA1FBB1FEE1F8F
:1053C000FF1FA217B307E407F50720F0A21BB30BDA
:1053D000E40BF50B661F771F881F991F1A9469F756
:1053E00060957095809590959B01AC01BD01CF01B2
:1053F0000895EE0FFF1F0590F491E02D0994F9999F
:10540000FECF92BD81BDF89A992780B50895262FC9
:10541000F999FECF1FBA92BD81BD20BD0FB6F89499
:0E542000FA9AF99A0FBE01960895F894FFCFFC
:10542E0000003703800001000000552255220100C4
:10543E00000000CC059F0574057C058F059E054474
:10544E005443303353205665722E322E303100497C
:10545E006E697469616C697A696E672E2E2E0054BE
:10546E0073746172743A005473746F70203A005200
:10547E0041544520203A2020202020432F73004302
:10548E0054524C3A0054533A0054413A00496C6914
:10549E006D3A0049633A00503A00493A0052313AA7
:1054AE000052323A004642433A00546F74703A004A
:1054BE00547063623A005343414E0053544F5000B0
:1054CE00204F4E00202020202000204F4646003046
:1054DE00202020006572726F723200000000000002
:1054EE001F892400000000001F89240D0A006E6130
:0A54FE006E00696E66006F766600AE
:00000001FF
